:020000040800F2
:1000000008CD002045010008411D00083D1D0008E5
:100010003F1D000853020008A12500080000000051
:10002000000000000000000000000000BD200008EB
:10003000AF02000800000000431D0008BF200008B8
:100040005F0100085F0100085F0100085F01000810
:100050005F0100085F0100085F0100085F01000800
:100060005F0100085F0100085F0100085F010008F0
:100070005F0100085F0100085502000861020008E6
:100080006D020008790200085F0100085F010008A6
:100090005F0100085F0100085F0100085F010008C0
:1000A0005F0100085F0100085F0100085F010008B0
:1000B0005F0100085F0100085F0100085F010008A0
:1000C0005F0100085F0100085F0100085F01000890
:1000D0005F0100085F010008092500085F010008B2
:1000E0005F0100085F0100085F0100085F01000870
:1000F0005F0100085F0100085F0100085F01000860
:100100005F0100085F0100085F0100085F0100084F
:100110005F0100085F0100085F0100085F0100083F
:100120005F0100085F0100085F0100085F0100082F
:10013000DFF80CD000F06CF800480047BD42000822
:1001400008CD00200648804706480047FEE7FEE746
:10015000FEE7FEE7FEE7FEE7FEE7FEE7FEE7FEE777
:100160002121000831010008202A04DB203A21FA6D
:1001700002F00021704721FA02F3D040C2F12002C0
:100180009140084319467047D2B201E000F8012BB4
:10019000491EFBD270470022F6E710B513460A4607
:1001A00004461946FFF7F0FF204610BD2DE9F05F29
:1001B0000546002092469B468846064681464024D6
:1001C0001BE02846414647462246FFF7CDFF5346EF
:1001D0005A46C01A914110D311461846224600F0E3
:1001E00029F82D1A67EB01084F462246012000210D
:1001F00000F020F817EB00094E41201EA4F1010485
:10020000DFDC484631462A464346BDE8F09F000001
:10021000064C074D06E0E06840F0010394E8070053
:1002200098471034AC42F6D3FFF786FFB84E00086B
:10023000D84E0008202A04DB203A00FA02F1002000
:1002400070479140C2F1200320FA03F31943904014
:100250007047FEE7014800F055B90000C4C800200F
:10026000014800F04FB9000080C80020014800F0AC
:1002700049B9000044C50020014800F043B900001E
:1002800000C5002030B590F840500124AC40C56B4B
:100290006C60046863604368102B036803D0996046
:1002A0000068C26030BD9A600068C16030BD7047B0
:1002B00070B586B0304C00250295A06940F004006E
:1002C000A061A06900F004000490A06940F0010062
:1002D000A061A06900F0010004902848416821F065
:1002E000080141F0E061416002200190042000908B
:1002F0000320234E03906946304600F0AFFA0820F1
:10030000CDE900056946304600F0A8FAE06940F4FE
:100310000030E061E0691C4C00F4003004901948A2
:1003200020604FF4E13060600C20C4E90505E56110
:100330002561E5602046A56001F066FC02F0EAF860
:1003400000221146262000F0FBFB262000F0EAFBED
:1003500021686FF010000860B21504F148012046D2
:1003600001F0B8FAA4F144000068016821F004012A
:10037000016006B070BD00000010024000000140A6
:10038000000801400044004088C5002010B590F8E6
:1003900021100022022905D00421816380F8202049
:1003A000012010BD01680B6823F00E030B6001688B
:1003B0000B6823F001030B6090F84030C46B0121FF
:1003C00001FA03F3636080F8211080F820201046C2
:1003D00010BD00002DE9F05F90F8211000240229E3
:1003E00003D004218163012485E001680A6822F0BA
:1003F0000E020A6001680A6822F001020A603F4E9C
:100400003E4FB215DFF8F4C0DFF8F090DFF8ECA053
:10041000DFF8E8B0DFF8E4E00168783F1301150287
:10042000ACF1640CA9F15009AAF13C0AABF1280B1C
:10043000AEF1140E4FF48018B14227D9B9420ED054
:10044000614512D049451DD0514518D0594518D0A5
:10045000714501D1424615E0294EB14201D1012238
:1004600010E0274E1436B14201D110220AE0244E8A
:100470002836B14206D0224A3C32914201D11A4676
:1004800000E02A461E49091F0A602BE0B94213D03A
:10049000614517D0494522D051451DD059451DD041
:1004A000714501D142461AE0B14202D14FF080724B
:1004B00015E0134EB14201D1012210E0104E143666
:1004C000B14201D110220AE00D4E2836B14206D0C9
:1004D0000B4A3C32914201D11A4600E02A460749B4
:1004E00080394A60012180F82110002180F8201015
:1004F000416B01B188472046BDE8F09F8000024073
:10050000080402402DE9F05FC16B0A6801680B68BE
:10051000046C4FF0040808FA04F8844D844E854FAB
:10052000DFF814C2DFF81492DFF814A2DFF814B277
:10053000DFF814E218EA020F65D05FEA437862D56B
:100540000A68920603D40A6822F004020A60DFF8FF
:10055000F0814FF48062016808F11408130114025D
:10056000414524D9A9420DD0B1420FD0B9421AD089
:10057000614515D0494515D0514501D1120312E00E
:10058000594501D104220EE0714501D140220AE013
:100590006D4D1435A94206D06B4A2832914201D1E3
:1005A0001A4600E022466749091F0A6029E0A9426D
:1005B00013D0B14215D0B94220D061451BD0494576
:1005C0001BD0514502D14FF4800217E0414502D1C2
:1005D0004FF0806212E0594501D104220EE07145CE
:1005E00001D140220AE0584D1435A94206D0564A9E
:1005F0002832914201D11A4600E022464B4908397F
:100600004A60C16A71E04FF0020808FA04F818EA7B
:10061000020F70D05FEA83786DD50A68920606D41F
:100620000A6822F00A020A60012180F82110DFF82E
:1006300010814FF40072016808F1140813011402CC
:10064000414524D9A9420DD0B1420FD0B9421AD0A8
:10065000614515D0494515D0514501D1120312E02D
:10066000594501D102220EE0714501D120220AE054
:10067000354D1435A94206D0334A2832914201D172
:100680001A4600E022462F49091F0A6029E0A942C4
:1006900013D0B14215D0B94220D061451BD0494595
:1006A0001BD0514502D14FF4001217E0414502D151
:1006B0004FF0007212E0594501D102220EE071455F
:1006C00001D120220AE0204D1435A94206D01E4A4D
:1006D0002832914201D11A4600E0224613490839D6
:1006E0004A60002180F82010816A00291CD0BDE8F2
:1006F000F05F0847FFE70825A540154214D01A0708
:1007000012D50A6822F00E020A6090F84020C36BEE
:10071000012101FA02F25A60816380F82110002160
:1007200080F82010016BE0E7BDE8F09F0800024070
:100730001C000240300002404400024058000240C9
:100740006C000240080402401C04024030B560B155
:100750001A4B026814219A4209D2194B1344B3FB75
:10076000F1F18900016417490AE0012030BD134B03
:100770005B421344B3FBF1F1890001640F4908396E
:10078000C163022180F82110136843F6F0718B4396
:10079000F0E901142143D0E902452C4321430469C7
:1007A0002143446921438469214319431160002195
:1007B0004163012242770177084630BD08040240B8
:1007C000F8FFFDBF0000024070B5044690F820001D
:1007D000002501280CD0012084F8200094F8216025
:1007E0000020012E06D084F820000225284670BD86
:1007F000022070BD022684F82160A063206806688C
:1008000026F0010606602046FFF73CFDE06A00285E
:100810002068016802D041F00E0106E021F00401D9
:1008200001602068016841F00A01016020680168E8
:1008300041F001010160D9E770B5044600F014F9F8
:100840000546601C02D004480078044400F00CF90E
:10085000401BA042FAD370BD4C0000202DE9F84F98
:10086000DFF8C8910024A9F1040B23460F2709F1F2
:10087000040AABF1040ED1E00125A54006EA050209
:10088000AA4276D1DFF8A8C14E68A6EB0C086645EF
:100890002BD00DDC032E34D005DC36B3012E19D05D
:1008A000022E2FD11BE0112E16D0122E2AD119E0C4
:1008B000B8F5881F19D006DCB8F5803F15D0B8F51B
:1008C000801F1FD111E0B8F5001F0ED0B8F5041F2E
:1008D00018D10AE0CB6815E0CB681B1D12E0CB688D
:1008E00008330FE0CB680C330CE08B682BB1012B85
:1008F0004FF0080303D0456104E0042302E00561E2
:1009000000E00023FF2A01D8064601E000F10406BA
:100910004FEA840501D9A5F12005D6F8008007FA31
:1009200005FC28EA0C0803FA05F548EA0508C6F8AC
:1009300000804D68ED0070D53E4DAE6946F0010671
:10094000AE61AD6924F0030605F0010500953A4D4E
:1009500006EB050CDCF80850A607360F07FA06F878
:1009600025EA0805DFF8D480404503D14FF00008A0
:1009700025E052E0DFF8C880404502D14FF0010881
:100980001DE0DFF8C080404502D14FF0020816E0BC
:10099000DFF8B480404502D14FF003080FE0DFF8E4
:1009A000AC80404502D14FF0040808E0DFF8A08099
:1009B000404502D14FF0050801E04FF0060808FA63
:1009C00006F848EA0508CCF808804D68D9F80060B8
:1009D000ED024D4601D5164300E096432E604D686A
:1009E000DAF80060AD02554601D5164300E09643A3
:1009F0002E604D68DBF80060AD035D4601D51643FF
:100A000000E096432E604D68DEF80060ED03754609
:100A100001D5164300E096432E60641C0A68164612
:100A2000E2407FF429AFBDE8F88F000008040140E0
:100A300000001110001002400000014000080140B9
:100A4000000C01400010014000140140001801405A
:100A5000001C01408068084000D0012070470AB1A6
:100A6000016170470904FBE7014880687047000096
:100A70004C00002002488168027811448160704770
:100A80004C000020074810B5016841F010010160DA
:100A9000032000F075F80F2000F006F800F024F8AD
:100AA000002010BD0020024070B50D4D04464FF4EB
:100AB0007A712878B1FBF0F00A490968B1FBF0F0CF
:100AC00000F0F4FE48B9102C07D200222146501E37
:100AD00000F036F800206C6070BD012070BD000091
:100AE0004C000020580000200C4808B5816941F0F6
:100AF00001018161816901F001010091C16941F049
:100B00008051C161C06900F0805000900448416884
:100B100021F0E06141F00071416008BD0010024029
:100B200000000140002809DB00F01F020121914074
:100B30004009800000F1E020C0F80011704700007B
:100B4000F0B40E4B1B680C46C3F30223C3F1070538
:100B5000042D00D90425191D072901D2002300E026
:100B6000DB1E012606FA05F1491E214099409E40F0
:100B7000761E16403143F0BC02F046B80CED00E0A2
:100B8000064900F0070208684FF6FF03184040EAE4
:100B90000220034A10430860704700000CED00E09B
:100BA0000000FA052DE9F0470F46050061D0434EDD
:100BB000306800F00700B84209D2306820F0070022
:100BC00038433060306800F00700B84251D12868DF
:100BD0003B4C810712D5400703D5606840F4E060C4
:100BE00060602878000703D5606840F4605060605A
:100BF0006068A96820F0F000084360602878C007AA
:100C000028D06868012810D02168022810D08907F0
:100C100000292EDA616821F0030101436160FFF7CA
:100C200023FF804641F288390DE021688903EFE710
:100C30008901EDE7FFF718FFA0EB0801494502D94C
:100C40000320BDE8F0876068696800F00C00B0EB35
:100C5000810FEFD1306800F00700B8420BD930683F
:100C600020F0070038433060306800F00700B842D9
:100C700001D00120E5E72878400705D56068E968DC
:100C800020F4E060084360602878000706D56068BB
:100C9000296920F4605040EAC100606000F038F833
:100CA0006168084AC1F30311515CC84006490860F5
:100CB00006480068FFF7F8FE0020C2E70020024067
:100CC00000100240F44D00085800002050000020A1
:100CD0000448054900684968044AC1F30221515C8F
:100CE000C84070475800002000100240044E000821
:100CF0000448054900684968044AC1F3C221515CAF
:100D0000C84070475800002000100240044E000800
:100D10000E4A51680E4801F00C03042B11D0082B29
:100D20000FD10C48C1F38343C903C05C0AD5516895
:100D3000084AC1F34041921E515C054A5043B0FB42
:100D4000F1F070470449484370470000001002402A
:100D500000127A00E44D000800093D002DE9F84F2B
:100D6000040070D02078C04DC00749D06868C0F337
:100D70008100012807D06868C0F38100022809D1EA
:100D80006868C00306D52868800339D560680028E4
:100D9000E7D035E06068B0F5803F0BD010B1B0F51A
:100DA000A02F11D0286820F480302860286820F413
:100DB000802002E0286840F480302860606890B1AC
:100DC000FFF752FE06460AE0286840F480202860BB
:100DD000F0E700BFFFF748FE801B642873D828683F
:100DE0008003F7D50CE0FFF73FFE064605E000BFA5
:100DF000FFF73AFE801B6428F0D828688003F7D4F8
:100E000020789A4E80074FF001094FF0000839D53D
:100E1000686810F00C0F07D06868C0F381000228E2
:100E200009D16868C00306D42868800714D52069F2
:100E3000012808D110E02069B0B1C6F80090FFF792
:100E400013FE074605E00AE1FFF70EFEC01B02286D
:100E5000C4D828688007F7D52868616920F0F800B1
:100E600040EAC10028600DE0C6F80080FFF7FCFDF5
:100E7000074604E0FFF7F8FDC01B022823D82868C6
:100E80008007F7D4207800072CD57948A169D9B11B
:100E9000C0F80090FFF7E8FD074604E0FFF7E4FD27
:100EA000C01B02280FD8686A8007F7D571484FF435
:100EB000FA510068B0FBF1F0009000BF0098411EAD
:100EC0000091FAD20EE080E0C0F80080FFF7CCFD80
:100ED000074604E0FFF7C8FDC01B022875D8686A02
:100EE0008007F7D42078400760D5E8690027C00064
:100EF00008D4E86940F08050E861E869012700F013
:100F0000805000905C480168C90513D4016883468D
:100F100041F480710160FFF7A7FD824606E000BF43
:100F2000FFF7A2FDA0EB0A0064284ED8DBF8000012
:100F3000C005F5D5E06801280AD008B1052813D00E
:100F4000286A20F001002862286A20F0040002E0EC
:100F5000286A40F001002862E06841F2883B98B1BD
:100F6000FFF782FD82460BE0286A40F00400286209
:100F7000EEE700BFFFF778FDA0EB0A0159455AD80C
:100F8000286A8007F6D50CE0FFF76EFD824605E083
:100F9000FFF76AFDA0EB0A0159454CD8286A800783
:100FA000F6D41FB1E86920F08050E861E06988B3A9
:100FB0006968C1F38101022944D00228C6F8608023
:100FC00004D0FFF751FD044638E034E0FFF74CFD54
:100FD000074604E0FFF748FDC01B02282BD828680D
:100FE0008001F7D4206AB0F5803F05D16868A16818
:100FF00020F4003008436860D4E9080108436968B8
:1010000021F4741108436860C6F86090FFF72CFD66
:10101000044606E025E000BFFFF726FD001B02287E
:1010200009D828688001F7D51BE000BFFFF71CFD39
:10103000001B022802D90320BDE8F88F2868800130
:10104000F4D40EE00128F7D06868226A00F48031F9
:10105000914204D1616A00F47010884201D00120ED
:10106000EAE70020E8E700000010024000004242EA
:10107000800442425800002000700040704770B564
:10108000040009D0606A002540B125616561A56250
:1010900094F8510040B10CE0012070BD6068B0F5DB
:1010A000827FF4D0E561F2E784F85050204600F0EA
:1010B0003FF8022084F851002068016821F04001C7
:1010C0000160A088218900F4827001F40441084382
:1010D000A18901F400610843217C01F00201084369
:1010E000217D01F001010843218B01F400710843C7
:1010F000217F01F03801084394F8201001F08001AD
:101100000843218D01F40051084321680860A0695B
:10111000042101EA1040216848602068C16921F477
:101120000061C1616565012084F85100002070BD37
:1011300070472DE9F84F044690F851001D461646B9
:101140000F46012838D160684FF00408B0F5827F5F
:1011500001D1A06830B3FFF787FC8246002F75D01D
:10116000002E73D094F85000012825D04FF00109CB
:1011700084F8509084F851804FF00008C4F85480EF
:10118000A763A687E687C4F83080A4F83480A4F863
:101190003680C4F84080C4F84480A068B0F5004FA1
:1011A0000CD015E084F85180009313460A4620467F
:1011B00000F091F9BDE8F88F0220FBE72068016894
:1011C00021F0400101602068016821F48041016044
:1011D00020680168490603D4016841F040010160BC
:1011E000E068C0B134E020688168C90709D0007B9D
:1011F000A16B0870A06B401CA063E08F401EE087CD
:1012000009E0FFF731FCA0EB0A00A84202D3681CFA
:1012100001D032E085B3E08F0028E4D11BE02068E4
:101220008168C90709D0C068A16B0880A06B801CC9
:10123000A063E08F401EE0870AE0FFF715FCA0EBFB
:101240000A00A84203D3681C02D016E012E09DB148
:10125000E08F0028E3D152462946204600F026FEC2
:1012600008B12020606584F8519084F85080606D4A
:1012700000289FD001209DE7FFE784F8519084F873
:101280005080032096E7000070B5044690F85100A6
:10129000012829D1A068042318B96568B5F5827FB3
:1012A00017D0F9B1F2B194F85050012D1CD001259E
:1012B00084F8505084F8513000256565A163A287F9
:1012C000E28725646564A586E586B0F5004F0DD0FC
:1012D00016E084F851302046BDE8704013460A46B7
:1012E00000F0F2B9012070BD022070BD20680168D5
:1012F00021F0400101602068016821F48041016013
:10130000E16C1748C862E16C16488862E16C1648C7
:101310000863E06C4563E38F2168A26B0C31E06CDD
:10132000FFF752FA30B1606D40F01000606584F84C
:101330005050D7E720680168490603D4016841F09E
:101340004001016084F850502068416841F020015C
:1013500041602068416841F001014160002070BD9A
:10136000671D0008851D0008451D0008704770476F
:101370002DE9F84F984616468A460446FFF774FB57
:10138000814694F8510001281ED1BAF1000F73D0A4
:10139000002E71D094F85000012815D0012784F850
:1013A0005070032084F8510000256565C4F830A012
:1013B000A686E686A563A587E58765642564A0689B
:1013C000B0F5004F03D00CE00220BDE8F88F206894
:1013D000016821F0400101602068016841F480410A
:1013E000016020680168490603D4016841F04001AA
:1013F0000160E068B0F5006F606803D048B3012E6B
:1014000027D047E008B1012E1FD1206B216800884A
:10141000C86006E020688168890709D5216B0988C2
:10142000C160206B801C2063E08E401EE0860CE0D3
:10143000FFF71AFBA0EB0901414503D3B8F1FF3FC9
:1014400003D035E0B8F1000F32D0E08E0028E1D1B2
:1014500023E0206B21680078087306E0206881682B
:1014600089070AD5216B09780173206B401C206322
:10147000E08E401EE0860DE02BE0FFF7F5FAA0EBD2
:101480000901414503D3B8F1FF3F03D010E0B8F1A3
:10149000000F0DD0E08E0028E0D14A46414620469C
:1014A00000F032FD08B120206065A06830B109E08D
:1014B00084F8517084F85050032086E72068C16892
:1014C0008068009084F8517004F8505F60680028CC
:1014D000F3D0012079E72DE9FF4F81B01D469346F7
:1014E00004464FF001090E9EFFF7BEFA074694F836
:1014F00051006168012806D0B1F5827F3CD1A16816
:10150000C9BB042838D10298002871D0BBF1000F64
:10151000FBD0002DF9D094F8500001282CD04FF0CA
:10152000010A84F850A094F85100042802D0052044
:1015300084F851004FF00008C4F85480C4F838B063
:10154000E587A58702992163E586A586C4F84080D2
:10155000C4F8448020680168490603D4016841F05A
:1015600040010160E068B0F5006F606808D0F0B33A
:10157000012D49D081E0FFE7022005B0BDE8F08FE2
:1015800008B1012D39D1206B21680088C860206B1B
:10159000801C2063E08E401EE0862EE0206881687B
:1015A00089070FD5E18E69B1B9F1010F0AD1216B1D
:1015B0000988C160206B801C2063E08E401EE0869D
:1015C0004FF0000920688168C9070CD0E18F51B144
:1015D000C068A16B0880A06B801CA063E08F401ED8
:1015E000E0874FF00109FFF73FFAC01B01E00BE075
:1015F00067E0B04201D3701C50D1E08E0028CDD1FD
:10160000E08F0028CAD13EE0206B21680078087383
:10161000206B401C2063E08E401EE0862DE0206899
:10162000816889070FD5E18E69B1B9F1010F0AD13F
:10163000216B09780173206B401C2063E08E401EF3
:10164000E0864FF0000920688168C9070CD0E18F5F
:1016500051B1C068A16B0870A06B401CA063E08F03
:10166000401EE0874FF00109FFF7FEF9C01BB042B2
:1016700002D3701C01D011E086B1E08E0028CED1DB
:10168000E08F0028CBD13A463146204600F03CFCA2
:1016900050B12020606584F8508012E084F851A099
:1016A00084F85080032068E7A06818B92068C168F2
:1016B0008068009084F851A084F85080606D002804
:1016C000F1D0012059E7000070B5044690F85100B0
:1016D0006568012806D0B5F5827F3AD1A568A5BB1B
:1016E000042836D191B38AB383B394F8500001280B
:1016F0002FD0012084F8500094F85100042802D023
:10170000052084F85100002565652163A386E386E2
:10171000A263A387E3872564656494F851000428D5
:1017200019D0E16C2748C8622748E16C8862E16CF7
:1017300026480863E06C4563E38F2168A26B0C3197
:10174000E06CFFF741F800BB0AE002E0FFE7012090
:1017500070BD022070BDE16C1D48C8621D48E4E701
:101760002068416841F001014160A06CC562A06C35
:101770008562A06C0563A06C4563E38E2268216BD3
:101780000C32A06CFFF720F830B1606D40F0100013
:10179000606584F85050DAE720680168490603D490
:1017A000016841F04001016084F8505020684168B0
:1017B00041F0200141602068416841F00201416030
:1017C000002070BD7B1D0008531E0008451D000849
:1017D000671D0008851D000870B5044690F851008B
:1017E00001281CD1C9B1C2B194F85000012816D00B
:1017F000012084F85000032084F85100002565651D
:101800002163A286E286A56365642564A587E587D2
:10181000A068B0F5004F04D00DE0012070BD02209B
:1018200070BD2068016821F04001016020680168F6
:1018300041F480410160A16C1748C862A16C17484F
:101840008862A16C16480863A06C4563E38E226829
:10185000216B0C32A06CFEF7B7FF30B1606D40F029
:101860001000606584F85050D7E720680168490689
:1018700003D4016841F04001016084F850502068B1
:10188000416841F0200141602068416841F0020157
:101890004160002070BD0000711D0008EF1D0008B0
:1018A000451D0008704770477047704710B5401ECF
:1018B000B0F1807F01D3012010BD4FF0E0246061C2
:1018C0000F21601701F0A0F90020A061072020611E
:1018D000002010BD38B5044690F84200202801D001
:1018E000022038BD51B14AB101202063002060635D
:1018F000204600F087FD216B012901D0012038BD71
:1019000021680A684968009121680C3151E8002F6C
:1019100042F0100241E80023002BF5D138BD000051
:1019200070B500681649884229D1164C2068406875
:10193000164AC0F580711448164B41800178491C45
:10194000017001211170124A1178491C117004F1C3
:101950008C01456801F596728D4202D14260196092
:1019600001E041601A60416806484FF480724430DB
:10197000FFF7B0FF2068016821F00401016070BD2D
:101980000044004044C500205C00002044000020CA
:101990003D0000204800002070470000F8B50168B5
:1019A00004460868CA684B6910F00F0F4FF0000535
:1019B00059D003F0010602F49077374365D0C10790
:1019C00005D0D10503D5616C41F001016164410787
:1019D00005D5D90703D0616C41F00201616481072C
:1019E00005D5D90703D0616C41F00401616401079A
:1019F00007D502F02001314303D0616C41F00801AA
:101A00006164616C00293AD0800604D5900602D545
:101A1000204600F03AFC20684069616CC0F38010F9
:101A2000090700D460B3204600F0FAFB2068406943
:101A3000400621D52068143050E8001F21F04001F5
:101A400040E80012002AF5D1E06BA8B16D4941636E
:101A5000E06BFEF7BFFC002811D0E06B416B01B0DA
:101A6000BDE8F040084783060FD593060DD5204604
:101A7000BDE8F84000F009BC2046FFF78DFFF8BD37
:101A80002046FFF789FF6564F8BD266B2023012EF1
:101A90007CD1C6067AD5D60678D508684868009005
:101AA00048694FF00206400640D5E16B086840687F
:101AB0000004000CE8D0A28D8242E5D9E085886957
:101AC00020282DD020680C3050E8001F21F48071B0
:101AD00040E80012002AF5D12068143050E8001FB9
:101AE00021F0010140E80012002AF5D120681430ED
:101AF00050E8001F21F0400140E80012002AF5D113
:101B000084F84230256320680C3050E8001F21F033
:101B1000100140E80012002AF5D1E06BFEF736FC18
:101B20006663A08DE18D401A81B22AE0A08DE18D1F
:101B3000401A81B2E08D0028A6D00029A4D02268E6
:101B40000C3252E8000F20F4907042E80007002F9A
:101B5000F5D12068143050E8002F22F0010240E84F
:101B60000027002FF5D184F84230256320680C301F
:101B700050E8002F22F0100240E80023002BF5D19E
:101B800066632046FFF7CCFEF8BDFFE705062BD5C0
:101B9000150629D594F841002128F5D1A068B0F5A3
:101BA000805F01D12069B0B1206A411C21622168A7
:101BB00000784860E08C401E0004000CE084E3D113
:101BC0002068C16821F08001C1602068C16841F0CF
:101BD0004001C160D8E7206A0088C0F3080048606F
:101BE000206A801C2062E5E74006CDD55006CBD5A3
:101BF000CA68204622F04002CA6084F8413000F0F2
:101C000089F8C1E72321000870B5040004D094F8D6
:101C10004100002510B106E0012070BD84F840505D
:101C2000204600F023F8242084F841002068C16891
:101C300021F40051C160204600F088FB2068016952
:101C400021F4904101612068416921F02A0141613C
:101C50002068C16841F40051C1606564202084F8A7
:101C6000410084F842006563002070BD70477047F2
:101C700070472DE9F843044690F84100984616460F
:101C80000D46202802D00220BDE8F88385B17EB140
:101C900000206064212084F84100FEF7E5FEA68460
:101CA0008146E684A0682027B0F5805F02D003E07B
:101CB0000120E9E7206910B12E4600250EE000263C
:101CC0000CE08021204600F0E5FBA8B9C6B116F86B
:101CD000010B21684860E08C401EE084E08C4B469C
:101CE0004FF00002CDF800800028EAD14FF040010B
:101CF000204600F0CFFB40B184F841700320C3E7D9
:101D000035F8020BC0F30800E3E784F841700020C7
:101D1000BAE7000006490120087006490878401E0D
:101D200008700548016801F5807101607047000086
:101D3000000000203D00002040000020FEE7FEE7FC
:101D4000FEE7704710B5406A01684A6822F0030256
:101D50004A60416D41F010014165012180F8511048
:101D6000FFF78CF910BD10B5406AFFF700FB10BDFE
:101D700010B5406AFFF797FD10BD10B5406AFFF738
:101D800094FD10BD70B50546446AFEF76DFE02462F
:101D900028680068800626D42068416821F0200168
:101DA0004160A06818B96068B0F5827F16D02068DD
:101DB000416821F0010141606421204600F076F87D
:101DC00008B1202060650020E087012084F85100E0
:101DD000606D40B12046FFF751F970BD2068416841
:101DE00021F00301E7E72046FFF7C0FA70BD38B5E0
:101DF0000546446AFEF738FE0246286800688006F9
:101E000023D42068416821F02001416020684168A6
:101E100021F0020141606421204600F075F818B1FC
:101E2000606D40F020006065A068002118B920684E
:101E3000C26880680090E186012084F85100606DDE
:101E400018B12046FFF71AF938BD2046FFF72AFDE2
:101E500038BD70B50546446AFEF706FE024628689E
:101E6000006880061ED42068416821F0200141608E
:101E70006421204600F048F818B1606D40F0200061
:101E800060652068416821F0030141600020E08620
:101E9000E087012084F85100606D18B12046FFF7FB
:101EA000EDF870BD2046FFF7FFFC70BDF8B50446A5
:101EB00040684FF48273984217D1A0684FF4806550
:101EC000B0F5004F01D0A8420FD12068066826F077
:101ED000400606606068984207D1A068A84204D115
:101EE00000920B460022012103E000920B460022E3
:101EF0008021204600F086F8002804D0606D40F074
:101F0000200060650320F8BDF8B515460E460B4667
:101F1000009204460122022100F074F840B93346D1
:101F2000002280212046009500F06CF8002804D0A3
:101F3000606D40F0200060650320F8BD2DE9F05F82
:101F400083460F4612F0FF00C0F100011646CDB2E5
:101F5000C3F3072403F0FF094FF4807A14D0F0B2E2
:101F60004042C0B206EB000814B3581BC0F307246C
:101F700000F0FF092B463A463146584600F088FBF0
:101F80003D44464657462CE074B15546641EE4B2C3
:101F90000CD32B463A463146584600F079FB06F5FD
:101FA000807607F58077F1E73A4622E04B46FBE77B
:101FB000A945F9D9A9EB0500C4B22B463A463146EA
:101FC000584600F065FB41467A19234612E03B462D
:101FD0002A463146584600F05BFB05F5807506F54C
:101FE0008076641EE4B2F2D2B9F1000007D0034655
:101FF0002A4631465846BDE8F05F00F049BBBDE8CF
:10200000F09F00002DE9F8431E469146884604469D
:10201000089DFEF729FD401B351AFEF725FD0746F2
:1020200025480068C0F3CB30684338E0701C37D0D7
:10203000FEF71AFDC01BA84203D215B1009860B389
:102040002CE02068416821F0E00141606068B0F553
:10205000827F0BD1A068B0F5004F02D0B0F5806F41
:1020600004D12068016821F040010160A06AB0F548
:10207000005F09D12068016821F4005101602068E7
:10208000016841F400510160012084F851000020F2
:1020900084F850000320BDE8F8830025401E00901E
:1020A0002068816838EA010004D000214945BDD18B
:1020B0000020F0E70121F9E7580000207047FEF703
:1020C000D9BC30B58FB028216846FEF764F81421DA
:1020D0000AA8FEF760F801210804CDE900100024E9
:1020E000029402250491CDE907504FF4E0100990C5
:1020F0006846FEF733FE08B172B6FEE70F20CDE961
:102100000A054FF48060CDE90C4002210AA80E9424
:10211000FEF748FD002801D072B6FEE70FB030BDD3
:10212000704710B5406A0021C185C184FFF734FCB7
:1021300010BD70B5446A2068406994F84110C0F33E
:10214000C0100025212904D118B1E584204600F0F3
:102150008EF82068406994F84210C0F3801022295C
:1021600004D118B1E585204600F05AF8606C40F0C3
:10217000100060642046FFF70FFC70BD10B50146EB
:10218000406A096809684FF0000289062ED4C285AA
:1021900001680C3151E8003F23F4807341E80034BA
:1021A000002CF5D10168143151E8003F23F0010300
:1021B00041E80034002CF5D10168143151E8003FAA
:1021C00023F0400341E80034002CF5D1202180F8B1
:1021D0004210016B012909D101680C3151E8003F1F
:1021E00023F0100341E80034002CF5D14263016B69
:1021F000012902D0FFF73BFD10BD818DFFF790FB59
:1022000010BD10B5406A01214163016B012902D064
:10221000FFF72EFD10BD818D4908FFF781FB10BD32
:1022200001680C3151E8002F22F4907241E800233C
:10223000002BF5D10168143151E8002F22F0010282
:1022400041E80023002BF5D1016B012909D1016878
:102250000C3151E8002F22F0100241E80023002B3E
:10226000F5D1202180F842100021016370470168F8
:102270000C3151E8002F22F0C00241E80023002B6E
:10228000F5D1202180F84110704708B590F8421030
:10229000222901D0022008BD82684FF480539A425F
:1022A00001D1016921B1816A9A421BD04AB10AE089
:1022B0000268816A5268C2F308020A80816A891C36
:1022C00008E0026972B10268526802F07F020A7087
:1022D000816A491C8162C18D491E0904090CC185AE
:1022E00003D01BE002685268F1E70168CA6822F077
:1022F0002002CA600168CA6822F48072CA6001685C
:102300004A6922F001024A61202180F8421000212E
:102310004163026B012A03D0FFF7A9FC002008BD2E
:10232000016301680C3151E8002F22F0100241E8EE
:102330000023002BF5D101680A68D20602D50A688D
:1023400049680091818DFFF7EBFAE7E770B5044625
:1023500000680169E26821F440511143016121697B
:10236000A0680843616908432168CA6841F20C63A8
:102370009A430243CA6020684169A26921F440710E
:10238000114341611E492068884202D1FEF7B0FC2A
:1023900001E0FEF79DFC00EBC00101EB001260685C
:1023A00064218000B2FBF0F3B3FBF1F36FF0180689
:1023B0007343B2FBF0F5B2FBF0F605EB8305322375
:1023C00003EB0515B5FBF1F5B6FBF1F605F0F005ED
:1023D00005EB0615B2FBF0F6B2FBF0F0B0FBF1F046
:1023E0006FF01802504306EB800003EB0010B0FBC7
:1023F000F1F0216800F00F002844886070BD0000F3
:102400000038014038B581620446828500201346B9
:102410006064222284F84220E56B1B4AAA62E56BC5
:102420001A4AEA62E56B1A4A2A63E26B50630A466B
:102430002168E06B091DFEF7C7F920680168406854
:102440000090206948B120680C3050E8001F41F42A
:10245000807140E80012002AF5D12068143050E85D
:10246000001F41F0010140E80012002AF5D1206868
:10247000143050E8001F41F0400140E80012002AEB
:10248000F5D1002038BD00007D210008032200089E
:10249000332100082DE9F843984617460D460446B7
:1024A000089E24E0701C22D0FEF7DEFAA0EB0800A4
:1024B000B0421AD8CEB12068C168490717D5802D1F
:1024C00015D0402D13D00168C94309070FD4016806
:1024D0000025406800902046FFF7A2FE08206064B7
:1024E00084F840500120BDE8F8830320FBE7206812
:1024F000006835EA000004D00020B842D2D00020A5
:10250000F1E70120F9E700000148FFF747BA0000B2
:1025100088C50020F8B51F48416941F001014161BB
:1025200040691D4900F0010000901C4800248026ED
:10253000016044618461C0E9036410210F02C76136
:10254000C0E9011400F18805A8634562FEF7FEF8B2
:10255000012211461120FEF7F3FA1120FEF7E2FAEC
:102560000D49A5F144001439C0E9001444618461A7
:10257000C0E90364C7618460E8634562FEF7E6F87A
:10258000012211461020FEF7DBFABDE8F8401020CA
:10259000FEF7C8BA001002408000024000C50020CB
:1025A000FEE710B5044600698047E169BDE81040C8
:1025B00001200847012211030148FEF750BA00002C
:1025C000000C0140F0B52F4885B0816941F0080149
:1025D0008161816901F008010491816941F008017C
:1025E0008161816901F008010491816941F008016C
:1025F0008161816901F008010491816941F008015C
:102600008161816901F008010491816941F004014F
:102610008161816901F004010491816941F0040143
:1026200081618069012400F00400049000256003AA
:102630008DE831000320144E039069463046FEF7C2
:102640000DF9E003009069463046FEF707F92003D4
:10265000009069463046FEF701F90C4F694638464E
:102660000094FEF7FBF8694638460094FEF7F6F84A
:10267000A003CDE9000569463046FEF7EFF805B046
:10268000F0BD000000100240000C014000080140B5
:10269000F8B5044614A01E4600680090080C8DF89A
:1026A0000100080A8DF802008DF803101546204637
:1026B00000F010F9E169002088476269042168464A
:1026C00090474FF480718E4200D8B1B262692846BB
:1026D0009047E16901208847204600F0C1F8204674
:1026E00000F0E8F8F8BD000002000000F8B504466C
:1026F0000DA01E4600680090080C8DF80100080A25
:102700008DF802008DF80310E16915460020884716
:102710006269042168469047A269B1B22846904791
:10272000E16901208847F8BD0300000038B50D4677
:102730000446C169002088470EA00121006800906E
:10274000626968469047A26903210DF10100904734
:102750009DF80100000228609DF802100843000265
:1027600028609DF8031008432860E169012088472C
:1027700038BD00009F00000038B504460FA0006877
:102780000090080C8DF80100080A8DF802008DF801
:102790000310204600F09EF8E16900208847626936
:1027A000042168469047E16901208847204600F0EF
:1027B00057F8204600F07EF838BD000020000000E9
:1027C0002DE9F0471F4688468246154600244FF4FF
:1027D000805910E008EB0400060331465046FFF72D
:1027E000CBFF32464B4629465046FFF7A7FB641CF9
:1027F000E4B205F58055BC42ECD3BDE8F0872DE985
:10280000F0470E4681461546102B02D21B030903E2
:1028100022E00F20B3FBF0F1CFB2B3FBF0F100FBED
:10282000113800244FF4704A0CE0A019C0EB0010DE
:10283000010353462A464846FFF758FF641CE4B29A
:1028400005F57045BC42F0D3F019C0EB0010010350
:102850004FEA08332A464846BDE8F047FFF746BF2F
:10286000F8B504460EA06FF07F4500680090E1695E
:102870000020884762690121684690476E46012121
:10288000A269701C90479DF80100C00704D06D1E1E
:10289000F5D104A000F0A8F9E16901208847F8BD4E
:1028A00005000000573235517878204552524F527A
:1028B000200D0A0038B5044604208DF80000E169B7
:1028C000002088476269012168469047E16901203C
:1028D000884738BD38B5044606208DF80000E16908
:1028E000002088476269012168469047E16901201C
:1028F000884738BD044B4FF4805108B1012200E0F5
:1029000000221846FEF7ABB8000C01402DE9F04359
:1029100085B0624C00250295A06940F00100A061DD
:10292000A06900F001000490A06940F00800A061D7
:10293000A06900F008000490A06940F00800A061C0
:10294000A06900F008000490A06940F00800A061B0
:10295000A06900F008000490A06940F00800A061A0
:10296000A06900F008000490A06940F00400A06194
:10297000A06900F004000490A06940F00400A06188
:10298000A0694FF0020800F0040004904FF40050DA
:10299000CDE900080320DFF8089103906946484616
:1029A000FDF75CFF4FF40040009069464846FDF794
:1029B00055FF4FF48040CDE9000569464846FDF7D4
:1029C0004DFF0126A714CDE9007669464846FDF77C
:1029D00045FFDFF8D090694648460096FDF73EFF78
:1029E000694648460096FDF739FFE06940F48040AB
:1029F000E061E0692C4E00F480400490B562F5611E
:102A000075613561C6F82C804FF48270F560C6E9B7
:102A10000105356260157562B0612448306030464A
:102A2000FEF72DFB606940F001006061606920499C
:102A300000F00100049006F1580080240160456117
:102A40008561C0E903451021C761C0E90115B06483
:102A50004662FDF77BFE032211460E20FEF770F85A
:102A60000E20FEF75FF8124906F19C001439C0E908
:102A7000001545618561C0E90345C7618560F06463
:102A80004662FDF763FE012211460F20FEF758F85B
:102A90000F20FEF747F805B0BDE8F08300100240B4
:102AA000000C01400008014028C800200038004008
:102AB000580002400A4601460148FEF7E5BB000007
:102AC00028C800200A4601460148FEF785BE0000DE
:102AD00028C800200220FDF7AFBE00000A460146CC
:102AE000014B0248FEF725BBA086010028C8002044
:102AF0000A4601464FF47A730148FEF739BC0000DC
:102B000028C8002010B5FFF75DFDBDE81040FFF7B5
:102B100051BD00002DE9F05F00268846044606708E
:102B20004FF40059154F4FF0800BA1F1010A20E03E
:102B30000025012249463846FDF791FF4FF48041B8
:102B40003846FDF787FF20B121782BFA05F00143C5
:102B50002170002249463846FDF781FF6D1CADB259
:102B6000082DE6D3564502DA002004F8010F761C42
:102B7000B6B24645DCD3BDE8F09F0000000C014032
:102B80002DE9F05F894606460025164F4FF0800A72
:102B90004FF40058A1F1010B20E0002431782AFA0B
:102BA00004F0014201D0012200E000224FF4004174
:102BB0003846FDF754FF012241463846FDF74FFFE6
:102BC000002241463846FDF74AFF641CA4B2082C97
:102BD000E4D35D4500DA761C6D1CADB24D45DCD307
:102BE000BDE8F09F000C01400FB4054B10B503A9E0
:102BF000044A029800F028F810BC5DF814FB0000AD
:102C000035410008A00000200907090E002804DB58
:102C100000F1E02080F80014704700F00F0000F190
:102C2000E02080F8141D704702E008C8121F08C198
:102C3000002AFAD170477047002001E001C1121F3D
:102C4000002AFBD1704700002DE9FF4F8DB09B4655
:102C50000F460446002606E025280BD05A460F9959
:102C60009047641C761C20780028F5D111B03046BE
:102C7000BDE8F08F0025A8460122984900E00543F1
:102C800014F8013F203B02FA03F00842F7D1207804
:102C90002E2817D114F8010F45F004052A280ED06C
:102CA0006FF02F022078A0F1300109290AD808EB33
:102CB000880102EB410100EB0108641CF2E757F8C0
:102CC000048B641C20786C280DD004DC4C2812D0B6
:102CD0006A2811D104E074280DD07A280CD10AE0BA
:102CE00045F4001507E0617845F48015814202D172
:102CF000641C05F58015641C2278692A45D008DC1F
:102D0000002AB3D0582A69D0632A10D0642A08D187
:102D10003BE0702A67D0732A13D0752A5CD0782ADA
:102D20005CD010465A460F999047761CD3E017F8AE
:102D3000040B8DF8000000208DF80100E946012009
:102D400003E057F8049B4FF0FF3069074FF0000590
:102D500001D40AE06D1C45450DDA8542FADB19F80D
:102D600005100029F6D106E06D1C8542FCDB19F840
:102D700005100029F8D12E4404E019F8010B5A4639
:102D80000F9990476D1EF8D2A5E00A200021CDE9E9
:102D90000801C5F3025002280DD001CFC117031E50
:102DA00071F100030DDA4FF0000CD0EB0C006CEB6E
:102DB00001012D2308E0FF1D27F00707F7E80201B6
:102DC000EDE72B0504D52B238DF8283001233BE0BC
:102DD000EB0739D02023F7E70A2000E0102000217C
:102DE000CDE9080107E01020002145F00405CDE9F8
:102DF00008014FF00808C5F3025002280FD001CF98
:102E000000214FF0000A2B071FD5702A0DD0DDE9F5
:102E100008C38CF0100C5CEA030C0CD015E0FF1D0D
:102E200027F00707F7E80201EBE740228DF828209A
:102E30004FF0010A0BE050EA010306D030238DF871
:102E400028308DF8292002239A46582A04D024A23B
:102E50000DF120090B9209E026A2F9E7DDE908232C
:102E6000FDF7A4F90B9B9B5C09F8013D50EA0102B8
:102E7000F4D1ADEB090020300890680701D44FF081
:102E800001080899884502DDA8EB010000E0002058
:102E90008046002506E00AA85A46405D0F999047F3
:102EA0006D1C761C5545F6DB04E030205A460F9920
:102EB0009047761CB8F10001A8F10108F5DC05E0A7
:102EC00019F8010B5A460F999047761C0899481E2D
:102ED00008900029F4DC641CC5E600000928010004
:102EE0003031323334353637383961626364656680
:102EF0000000000030313233343536373839414242
:102F0000434445460000000010B504460020E07030
:102F1000401E2063204601F0DDFD08B1042010BDF5
:102F200004F2322001F0C4F9A0F52A41553901D04C
:102F3000032010BD94F83400E92803D0EB2801D019
:102F4000E8280FD1032208A104F16A0001F064FC13
:102F50000028EED0052205A104F1860001F05CFCFA
:102F60000028E6D0022010BD4641540046415433AB
:102F7000320000008269891E921E8A4201D8002018
:102F80007047C26A408900FB012070472DE9F0417B
:102F900006680F00804606D001F0DAF8022809D250
:102FA0000120BDE8F081346914B1B069A04207D8AE
:102FB000012405E0411CF4D0B1698142F1D83C46BE
:102FC00070690028EDD0BC4216D1B069651CA842DA
:102FD00000D802252946404601F0BAF80128E0D081
:102FE000411CDED038B13069022805D3B169814275
:102FF00002D9044600E0A5B92546B0696D1CA84277
:1030000002D80225022C0AD32946404601F0A0F836
:1030100038B10128C5D0411CC3D0A542EDD1002054
:10302000BFE74FF0FF3422462946304601F06BFDE2
:1030300030B95FB12A463946304601F064FD28B107
:10304000012800D0012425462846AAE73561D6E9A3
:103050000501891E884201D8401E7061307940F018
:1030600001003071F0E700002DE9F0410E462030FC
:103070000D6804460B22202101F0E4FB00200146EC
:1030800008272A5C401C202A12D92F2A0BD05C2A40
:1030900009D02E2A01D0B94214D30B2F22D02E2AC8
:1030A00020D10CE0401C2B5C2F2BFBD05C2BF9D0EB
:1030B00028443060B1B12078E5281FD020E00821F5
:1030C0000B27DEE7802A03D3114B02F07F029A5CC4
:1030D00010A300E05B1C93F800C0BCF1000F04D00B
:1030E0009445F7D10620BDE8F081A2F16103192BC8
:1030F00001D8203AD2B26254491CC2E705202070A0
:10310000202A01D8042000E00020E0720020EAE735
:103110000C4E0008222A2B2C3A3B3C3D3E3F5B5D87
:103120007C7F00002DE9FF4F81B09B466A4601215C
:10313000019800F0A3F900287ED108264FF03F093E
:10314000F101009F03E0700010F0FF0606D006FBBF
:1031500009F0B7FBF0F08842F5D806B9FF264FF426
:1031600080520021584601F06DFB0BF5DF754FF0E2
:10317000000A4C465DE0029850F82A80B8F1640FCE
:1031800009D801D1384605E04FF06400B7FBF0F0F4
:1031900000FB08F0804604EB0800B84201D8A042CA
:1031A00001D2A7EB0408B8F1000F44D0214605F185
:1031B000080001F088FD414605F10C0001F083FD97
:1031C000B4FBF9F2B2FBF6F303982871B4FBF9FCF7
:1031D00009FB06F006FB1322B4FBF0F109FB1C43CC
:1031E0006A70C02202EA910C5B1C4CEA030C85F861
:1031F00002C0E97004EB08014C1EB4FBF9F3B3FB09
:10320000F6FCB4FBF9F8B4FBF0F006FB1C3C09FB40
:10321000184302EA90025B1C85F805C01A43AA71A4
:10322000E8710AF1010A10350C46BAF1040F02D216
:103230000CB1BC429FD300E00DE04AF655210BF5DE
:10324000FF7001F048FD012300225946019800F06B
:1032500049F9002800D0012005B0BDE8F08F2DE924
:10326000F0410C46054601F07FFD00BB2146284693
:10327000FFF780FE0646286305F134004FF48052C4
:103280000021044601F0DEFAA0460127002400E0F8
:103290003C446889A04207D9321968783B464146C8
:1032A00000F020F90028F3D06889A04202D0012064
:1032B000BDE8F0810020FBE72DE9F04707690668CB
:1032C0002037894604464FF00008B7F5001F39D271
:1032D000A06930B1B189B7FBF1F201FB127119B1EC
:1032E0003DE00420BDE8F087401CA061616929B37E
:1032F000B0897289B7FBF0F0521E10422FD12046E0
:1033000000F026FF0546012821D9681C14D0B069B9
:10331000A8421ED8B9F1000F14D020466169FFF70A
:1033200035FE050011D0012D11D0681C04D02946AE
:103330003046FFF794FF60B10120D3E73089B0EB4E
:10334000571F0CD8C4F81880CBE70720CAE7022023
:10335000C8E7294630466561FFF70CFEA06127618A
:10336000B089B7FBF0F100FB117030443430E061FC
:103370000020B7E770B504460021066800F02DF87C
:103380000DE03046A16901F0A5FB50B9E069007875
:10339000E52809D040B101212046FFF78DFF002824
:1033A000EFD0042807D007E03046A16901F092FB76
:1033B000050003D00FE0072005460CE02022002185
:1033C000E06901F03FFA0B2204F12001E06901F00D
:1033D00030FA0120F070284670BD2DE9F0410468F4
:1033E0000F460646B1F5001F3CD2F8063AD13761C8
:1033F000B56825B92078032806D3A56A25B1608968
:10340000A18900FB01F812E02089B0EB571F29D9F0
:10341000A06A12E0304600F09BFE0546401C1FD01B
:10342000022D1FD3A069A8421CD9A7EB0807474566
:103430002946EFD22046FFF79DFDC6E9055088B129
:10344000A189B7FBF1F10844B061A089B7FBF0F1A5
:1034500000FB117020443430F0610020BDE8F081A1
:103460000120FBE70220F9E710B508B1012803D1DC
:1034700000F02AF8002800D0012010BD08B1042077
:103480007047012904D0022906D0032909D106E09A
:103490004FF48060106004E04FF4805000E00120A1
:1034A000108000207047000010B508B1042010BD46
:1034B00090B20A4601469BB20248FFF7A0F90020ED
:1034C00010BD00006400002008B50121009108B182
:1034D000012008BD69460248FFF728F9002008BD11
:1034E0006400002010B508B1042010BD90B20A4657
:1034F00001469BB20248FFF763F9002010BD0000AF
:103500006400002038B5044600F099FC002807D17B
:103510006946204601F04BFC002801D100212160C2
:1035200038BD00002DE9FF4F97B0994690460D46F3
:1035300017A800F083FE002803DA0B201BB0BDE8BB
:10354000F08FFE49002451F8201001B10C70C0B278
:103550000A9005B9FA4DFFF787FFC10701D0032094
:10356000ECE7400701D50A20E8E768680127FE0379
:10357000119048B911AA03210A98FFF77FFF08B1FB
:10358000119703E0119828B1B04203D81198411E59
:10359000084200D0119702AA02210A98FFF76EFF95
:1035A00000287DD1BDF80800A0F50071B1F5606F6D
:1035B00076D8411E0842F4D1297801F00F01159107
:1035C00069784A1E012A00D901218B46A9684A1E42
:1035D000B24205D24209B1FBF2F302FB13120AB167
:1035E0004FF400711091E968B1F1807F02D84A1E52
:1035F000114200D00021B1FBF0F7B9FBF0F05FEA17
:1036000000090DD05FEA08050AD000200790089055
:1036100007AA01210A98FFF731FF0028C1D101E074
:1036200011208BE71598000706D407983F2803D987
:103630003F213F38CDE907010798864680287CD393
:10364000802F00D9802715984FF6F57280071598BE
:1036500040F6F5734FEAC07002D500286ED000E046
:1036600008B10226AFE0132068E73C000FD1DFF875
:10367000D0C200204FEA5E480124ACF10E0C01E0FC
:103680006400401C3CF8101009B14145F8D9BEFB5C
:10369000F4F0BDF8081001EB800C0CF1070C00E011
:1036A00094E1BCFBF1F1039100214FF0200A059158
:1036B000904242D9A34988423FD82CE0A04900203B
:1036C00001244FEA1E3C1C3901E06400401C31F823
:1036D0001080B8F1000F01D0E045F6D9BEFBF4F040
:1036E000984203D9042101EB400006E0012600EBDB
:1036F00040000321401C01EB5000BDF808104FF0C2
:10370000010A0844401EB0FBF1F0039010984001FC
:10371000B0FBF1F005900898059950440E9000EB2D
:10372000010C039800FB0BC1119801EB000C401E2B
:10373000ACF1010C2CEA000C01E057E049E0ACEBE5
:103740000100032E2AD0B0FBFBF80BFB180CBCF1D8
:10375000000F08D0DDF838C00AF1010A0CF1010CA5
:10376000401ECDF838C0B0FBFBFC039860440390CA
:10377000089801EB0411091A714537D80398AEEB8C
:103780000A0C00FB1BC10598081AB0FBF4F8032EC5
:103790000AD0022E0FD0012E26D029E0DDF838C045
:1037A000824460440E90E3E7904521D8F7B967085A
:1037B0007FF45BAF1AE0904511D93FB94020B0EBE0
:1037C000440F03D367003C0088D177E71598800742
:1037D00007D5032649E76700802FF4D906E098450E
:1037E00006D8002FF7D001E0984501D90E20A5E6B4
:1037F000BDF808200021284601F024F80B2252A130
:10380000284601F016F8BDF8081005F10B0001F08C
:1038100062FA6C731FFA8AF105F10E0001F05BFA8F
:1038200085F810B0032E0FD0109881B205F1110069
:1038300001F051FA0799B1F5803F07D289B205F13D
:10384000130001F048FA05E00020EEE705F1200042
:1038500001F039FAF82068753F2105F1180001F0F0
:103860003AFAFF2105F11A0001F035FA05F11C00C2
:10387000089901F028FA80274FF0290A032E28D052
:1038800000F0DAFC014605F1270001F01CFA03986C
:1038900081B205F1160001F01EFA85F8247085F852
:1038A00026A013222BA105F12B0000BF00F0C1FFC1
:1038B0004AF6552705F5FF703946824601F00BFAA6
:1038C00001232946089A0A98FFF70CFE00287DD1AB
:1038D00023E000F0B1FC014605F1430001F0F3F9EB
:1038E00005F12400039901F0EEF9022105F12C0005
:1038F00001F0E9F9012105F1300001F0ECF90621B0
:1039000005F1320001F0E7F985F8407085F842A032
:10391000132215A105F14700C8E7032E55D1089AD7
:1039200001232946921D0A98FFF7DCFDBDF8082007
:103930000021284600F086FF104921E09800002071
:10394000A84E0008F5FFFF0FEBFE904D53444F5378
:10395000352E30004E4F204E414D45202020204630
:1039600041542020202020004E4F204E414D452024
:103970002020204641543332202020005252614101
:10398000284601F0A0F9514905F5F27001F09BF9C4
:10399000A8F1010105F5F47001F095F9022105F592
:1039A000F67001F090F93946504601F094F9089A02
:1039B00001232946D21D0A98FFF794FD089A012396
:1039C0002946521C0A98FFF78DFD00E05DE0BDF826
:1039D0000800002109FB00F2284600F033FF002018
:1039E000DDF8388033E0032E14D0012E21D06FF0A3
:1039F0000701284601F067F9039F48464F4500D864
:103A0000384682460346424629460A98FFF76AFD31
:103A1000D8BB10E06FF00701284601F054F94FF0D1
:103A2000FF31281D01F04FF96FF0704105F10800DA
:103A3000E0E72749DDE7BDF808200021284600F02F
:103A400001FFD044B7EB0A07D7D10D98401C0D9069
:103A50005845C8D3032E00D0059C48464C4501D993
:103A6000074600E027463B46424629460A98FFF7AC
:103A700039FD50B9B844E41BEFD1032E06D00798A6
:103A8000B0F5803F04D3062205E01BE00C2202E0E3
:103A9000022E19D00122159800070BD40798139015
:103AA000002014902B4613A90A98FFF73BFB00282F
:103AB0007FF456AD002211460A98FFF7DFFC00287C
:103AC0003FF44EAD012039E50422E4E77272416112
:103AD000F8FFFF0017B581B01446029800906846C1
:103AE00000F0ACFB002802DA0B2004B010BD0A4A3B
:103AF000002352F8201001B10B70019901B10B7035
:103B000042F820102CB1002201A902A800F0A2FE68
:103B1000EBE70020E9E70000980000202DE9F743DB
:103B20008CB005000BD002F03F06324669460DA866
:103B300000F090FE04004FF0000804D0C3E009201C
:103B40000FB0BDE8F0830098019001A80D9900F036
:103B50008EFA040004D19DF82F00000600D506243B
:103B600016F01C0F48D04CB1042C03D101A8FFF76C
:103B700001FC044646F008065CB1A4E09DF80A008A
:103B800010F0110F01D007249DE0700701D5082423
:103B900099E030073FD50899009800F06BFB074685
:103BA00000F04AFB014608980E3001F08CF80899A5
:103BB00020200022C8720899009801F070F8089837
:103BC00000211C3001F07FF800980121C17007B37B
:103BD000D0F830900022394601A801F026F8040000
:103BE00071D14946009800F075FF04000098A7F1D4
:103BF000010707610BD066E0D4BB9DF80A00C1063F
:103C000001D504245FE0B10701D5C007BBD130075F
:103C100001D546F040060098016B29620899696257
:103C2000089900F027FBA86008981C3000F035FBCD
:103C3000E8600098286000984FF480520021C08806
:103C4000A8802E7485F81180C5F81C8005F1280025
:103C50008146C5F8148000F0F5FDB00635D5EE6854
:103C60009EB36E610098A9684789808947430FE039
:103C700029E0284600F06CFA0146012800D8022409
:103C8000481C02D0F61B1CB104E00124F61B01E025
:103C9000BE42EED8A961B4B900988289B6FBF2F3AE
:103CA00002FB13628AB1FFF765F980B10099012325
:103CB0008A89B6FBF2F20244EA6148784946FFF786
:103CC000F3FB10B10124C5F80080204638E7022438
:103CD000F9E72DE9F04F89B00446002088461860C6
:103CE0009946154604A9204601F061F8002812D132
:103CF000607C00280FD1207CC0070BD06169E06890
:103D00000127401A4FF0020A04F1280B854200D91E
:103D100005468FE0072009B0BDE8F08F049960697F
:103D20008A89B0FBF2F302FB1303002B63D1B0FBD3
:103D3000F2F64989491E0E4009D118B32046A169FF
:103D400000F006FA02281FD3411C4FD0A061A169E0
:103D50000498FFF70FF9B8B13044009004988189B6
:103D6000B5FBF1F1059141B3721841898A4201D93D
:103D7000891B059140784146059B009AFFF794FB0B
:103D8000A0BB05E0A068DDE784F811A00220C2E72F
:103D9000207C00060CD5E1690098081A0599884234
:103DA00006D204998A89594600FB028000F041FD41
:103DB000049886890598464332E0E26900998A4270
:103DC00017D0217C090609D5407801235946FFF711
:103DD00089FB58B9207C00F07F00207404980123EF
:103DE00059464078009AFFF75FFB10B167740120D5
:103DF00091E70098E061049861698089B1FBF0F275
:103E000000FB1212861AAE4200D92E46B1FBF0F228
:103E100000FB1210011932464046283100F009FD1E
:103E2000D9F80000AD1B8119C9F800106069B044D1
:103E300030446061002D7FF471AF00206BE7F8B56E
:103E40000446694600F0B3FF00280ED1217C4A06E3
:103E50000BD508060ED50098E2690123407804F1DD
:103E60002801FFF73FFB08B10120F8BD207C00F0DE
:103E70007F00207400F0E0F90646216A009800F007
:103E800029FE0028F1D1656A2946E87A40F0200031
:103E9000E872A268206800F002FF05F11C00E168EA
:103EA00000F011FF314605F1160000F00CFF002173
:103EB00005F1120000F00FFF00980121C17000F021
:103EC0000FFF217C01F0BF012174F8BD2DE9FE4FE9
:103ED00088460021196099461646044602A900F05A
:103EE00066FF002806D1607C002803D1207C800773
:103EF00002D40720BDE8FE8F6069012782194FF0C8
:103F0000020A04F1280B824200D2C643A6E0029ABC
:103F100061699089B1FBF0F300FB1313002B73D19F
:103F2000B1FBF0F55089401E054012D109B1A169DD
:103F300002E0A06828B900212046FFF727F80028F2
:103F40007DD001282FD0411C58D0A061A16801B9B3
:103F5000A060207C00060BD50298E269012340781E
:103F60005946FFF7BFFAC0BB207C00F07F002074E9
:103F7000A1690298FEF7FEFFA8B1284401900298BB
:103F80008189B6FBF1F1009141B36A1841898A42F7
:103F900001D9491B0091DDE9003240784146FFF725
:103FA000A1FAD0B903E084F811A00220A2E7E169E8
:103FB0000198081A009988420AD202998A8900FB5E
:103FC0000281584600F035FC207C00F07F00207410
:103FD00002988589009845432FE00FE0FFE7E269EA
:103FE00001998A420ED0E268616991420AD2407812
:103FF00001235946019AFFF757FA18B16774012057
:1040000078E701E00198E061029861698089B1FB7D
:10401000F0F200FB1212851AB54200D93546B1FB09
:10402000F0F200FB121020442A464146283000F0EE
:1040300000FC207C40F080002074761B00E010E043
:10404000D9F80000A8444119C9F800106069284453
:104050006061E168884200D80846E060002E7FF485
:1040600056AF207C40F040002074002042E72DE94C
:10407000F34105460668019801E0401C0190017873
:104080002F29FAD05C29F8D00020A8600198007888
:10409000202808D2802085F82B0000212846FFF731
:1040A0009CF9BDE8FC8101A92846FEF7DDFF002848
:1040B000F7D1002128462F68FFF78FF9E0B938467D
:1040C000A96900F007FD040015D1E8690178E1B1A4
:1040D000C17A01F03F02AA71C17A090705D40B2207
:1040E00005F1200100F098FB28B100212846FFF7D8
:1040F000E3F80400E3D0204695F82B1038B10428EB
:10410000CFD14907CDD40520CBE70424F3E74907F5
:10411000C7D4A879C006F6D5B1892869B0FBF1F2F9
:1041200001FB120081193046343100F0A3F8A86079
:10413000B9E7000038B504468DF80000C823012215
:1041400069460248FDF795FD204638BD88C5002028
:104150002DE9F04104680D4602290BD3A069A8425D
:1041600008D920784FF0FF36012807D0022834D034
:10417000032849D001263046BDE8F081A08905EB2F
:104180005507B7FBF0F0616A0144204600F0A2FC3D
:104190000028F0D1A089B7FBF0F100FB11717F1C62
:1041A000B7FBF0F0214491F83480616A0144204665
:1041B00000F090FC0028DED1A089B7FBF0F100FBF5
:1041C0001170204490F8341048EA0120E90701D02A
:1041D0000609D0E7C0F30B06CDE7A089616A400865
:1041E000B5FBF0F00144204600F074FC0028C2D179
:1041F000A1896800B0FBF1F201FB120020443430C9
:1042000000F056F80646B6E7A089616A8008B5FB5B
:10421000F0F00144204600F05DFC0028ABD1A189FC
:10422000A800B0FBF1F201FB12002044343000F092
:1042300034F820F070469EE70020704710B5044621
:104240004FF0FF3021680A0011D000BF11F8013B88
:10425000212B0DD33A2BF9D11378303B092B06D8FB
:10426000921C8A4203D1022B01DA1846216010BD4C
:10427000002010BD70B506460D4601F11A0000F091
:1042800017F804463078032805D105F1140000F032
:104290000FF844EA0044204670BDC178827842EAB3
:1042A00001214278007842EA012140EA012070476A
:1042B0004178007840EA0120704700000EB5FCF715
:1042C000E1FBFDF7FEFE8B48816941F0040181614D
:1042D000806900F004000090FBF7EAFF8648FEF7D3
:1042E00060F901A98448FEF721FA84A00199FEF73C
:1042F0007BFC87A0FEF778FC4FF4FA694846FCF790
:104300009BFA00208D4C77214FF480552154401C9E
:10431000A842FBDB00217848FEF72EFA0123874AEA
:1043200000217548FEF74CFA002007462754401C30
:10433000A842FBDB0123814A00216F48FEF75FFAA8
:104340004FF0000846467EA0A15DFEF74DFCA05D43
:10435000772803D108F101001FFA80F8761CAE42DD
:10436000F1DB414678A0FEF73FFC4846FCF764FAD3
:104370000026304699212154401CA842FBDB4FF413
:10438000FF015D48FEF7F8F94FF4FF6801236B4A1F
:1043900041465948FEF714FA00202754401CA84211
:1043A000FBDB0123654A41465348FEF728FA002704
:1043B00063A0E15DFEF718FCE05D992801D1761C51
:1043C000B6B27F1CAF42F3DB314667A0FEF70CFCB0
:1043D0004846FCF731FA01226CA16D48FFF77AFBE1
:1043E0006C4C01460D28207008D0002925D06AA009
:1043F000FEF7FAFB72A0FEF7F7FBFEE77AA0FEF7E6
:10440000F3FB2B464D4A002160A0FFF78BF820708C
:1044100018B180A0FEF7E8FBFEE784A0FEF7E4FBFE
:1044200001225AA10020FFF755FB2070012257A15D
:104430005748FFF74FFB207002E084A0FEF7D4FB43
:104440008CA0FEF7D1FB0A2295A19748FFF766FBE7
:104450002070C8B195A0FEF7C7FB9BA0FEF7C4FB78
:1044600001228FA19048FFF759FB2070002827D028
:104470009FA0FEF7B9FB8C48FFF744F8012243A147
:104480000020FFF727FBFEE79FA0FEF7ADFB414BA7
:1044900031221B1D191D8448FFF718FD2070011ED5
:1044A00006D0A9A0FEF7A0FB7F48FFF72BF8D4E7C2
:1044B000ABA06168FEF798FB3649B2A00831F1E77E
:1044C000B8A0FEF791FB334B4FF480621B1DBA4935
:1044D0007548FFF7FEFB2070011E04D0B7A000BF97
:1044E000FEF782FBC7E7BBA06168FEF77DFBB24920
:1044F000C1A0F5E70010024064000020466C617323
:1045000068204944BAC53A2025780D0A0000000009
:104510002D2D2D2D2D2D2DBCB4BDABBDF8D0D0C96A
:10452000C8C7F8D0B4C8EBBACDB6C1C8A1CAB5D116
:10453000E92D2D2D2D2D2D2D0D0A0000A404002078
:1045400025782020000000000D0A20C9C8C7F830D7
:1045500020CAFDBEDDD0B4C8EBD5FDC8B7202564A8
:1045600020B8F60D0A0000000D0A20C9C8C7F832AD
:1045700030343020CAFDBEDDD0B4C8EBD5FDC8B79D
:1045800020256420B8F60D0A00000000303A000033
:10459000A4A4002004000020A3A1A3A1CDE2B2BFE7
:1045A000466C617368B9D2D4D8CEC4BCFECFB5CD49
:1045B000B3CAA7B0DCA1A3282564290D0A00000016
:1045C000A3A1A3A1BFC9C4DCD4ADD2F2A3BA5350F6
:1045D0004920466C617368B3F5CABCBBAFB2BBB3CC
:1045E000C9B9A6A1A30D0A00A1B7464C415348BBC7
:1045F000B9C3BBD3D0CEC4BCFECFB5CDB3A3ACBC86
:10460000B4BDABBDF8D0D0B8F1CABDBBAF2E2E2E15
:104610000D0A0000A1B6A1B6B8F1CABDBBAFCAA7CA
:10462000B0DCA1A3A1B7A1B70D0A0000A1B7464C09
:10463000415348D2D1B3C9B9A6B8F1CABDBBAFCEB8
:10464000C4BCFECFB5CDB3A1A30D0A00A1B7CEC4A3
:10465000BCFECFB5CDB3B9D2D4D8B3C9B9A6A3AC3B
:10466000BFC9D2D4BDF8D0D0B6C1D0B4B2E2CAD49A
:104670000D0A00000D0A2A2A2A2A2A2A20BCB4BDC3
:10468000ABBDF8D0D0CEC4BCFED0B4C8EBB2E2CA49
:10469000D42E2E2E202A2A2A2A2A2A0D0A00000089
:1046A000303A312E74787400D8B40020A3A1A3A1AD
:1046B000B4F2BFAA2FB4B4BDA8CEC4BCFECAA7B082
:1046C000DCA1A30D0A0000002A2A2A2A2A2A20BCDB
:1046D000B4BDABBDF8D0D0CEC4BCFEB6C1C8A1B28B
:1046E000E2CAD42E2E2E202A2A2A2A2A2A0D0A008D
:1046F000A3A1A3A1B4F2BFAACEC4BCFECAA7B0DCDA
:10470000A1A30D0A00000000A1B7B4F2BFAA2FB404
:10471000B4BDA84661744673B6C1D0B4B2E2CAD47F
:10472000CEC4BCFE2E747874CEC4BCFEB3C9B9A688
:10473000A3ACCFF2CEC4BCFED0B4C8EBCAFDBEDD84
:10474000A1A30D0A00000000A3A1A3A1CEC4BCFE3A
:10475000D0B4C8EBCAA7B0DCA3BA282564290A00E4
:10476000A1B7CEC4BCFED0B4C8EBB3C9B9A6A3AC44
:10477000D0B4C8EBD7D6BDDACAFDBEDDA3BA256476
:104780000A000000A1B7CFF2CEC4BCFED0B4C8EB83
:10479000B5C4CAFDBEDDCEAAA3BA0D0A25730D0AA3
:1047A00000000000A1B7B4F2BFAACEC4BCFEB3C9DA
:1047B000B9A6A1A30D0A0000A4000020A3A1A3A1F3
:1047C000CEC4BCFEB6C1C8A1CAA7B0DCA3BA282516
:1047D00064290A00A1B7CEC4BCFEB6C1C8A1B3C942
:1047E000B9A62CB6C1B5BDD7D6BDDACAFDBEDDA30C
:1047F000BA25640D0A000000A1B7B6C1C8A1B5C3AF
:10480000B5C4CEC4BCFECAFDBEDDCEAAA3BA0D0A95
:104810002573200D0A0000002DE9104010F8013B1F
:1048200011F8014B1B1B521E01D0002BF6D018466D
:1048300010BD002A05D011F8013B00F8013B521EC3
:10484000F9D170475FFA81F100F8011B521EFBD1CC
:10485000704700002DE9FF41002790460E460F608B
:10486000FFF7ECFC050003D50B2004B0BDE8F08198
:10487000944850F825409CB13460207808F0FE063A
:1048800020B16078FEF720FEC1070BD02770E8B298
:10489000B8466070FEF7E8FDC10708D00320E4E7E2
:1048A0000C20E2E70EB1400704D40020DDE71EB182
:1048B000400701D50A20D8E7607804F10C020221F4
:1048C000FEF7DCFDD8BBA089A0F50071B1F5606FE3
:1048D00036D8411E084233D100212046FEF714FB92
:1048E00002281AD100266D4604EB061000F5FD7073
:1048F000FFF7D3FC45F82600761C042EF4D30026DF
:1049000055F8261029B12046FEF7FEFA022801D2FA
:1049100003E00320761C042EF2D3042810D00228D2
:104920007ED204F13F00276BFFF7C2FCA1898842C9
:1049300076D104F14A00FFF7BBFC18B106E0FFE7AF
:10494000012092E704F15800FFF7A7FCE06194F81A
:104950004460A670012E01D0022E61D1464394F826
:1049600041006081F0B3411E084259D104F1450075
:10497000FFF79EFC2081A1894909B0FBF1F201FB00
:10498000120078BB04F14700FFF792FC050004D148
:1049900004F15400FFF781FC054604F14200FFF7E3
:1049A00087FC01003CD0A08923894009B3FBF0F0CB
:1049B0008A190244954233D3A81A6589B0FBF5F0F1
:1049C00080B1DFF804C10025604500D803254FF60B
:1049D000F57C604500D8022540F6F57C604502D89C
:1049E000012501E01CE0DDB1801C3A44E26239445B
:1049F000A061C4E90871032D14D08BB13144A162C8
:104A0000022D20D000F0010100EB400001EB50002E
:104A1000A189401E0844B0FBF1F0E169884214D935
:104A20000D2022E704F15E00FFF742FC0028F7D1D9
:104A300020890028F4D104F16000FFF72EFCA06269
:104A4000A0698000E4E74000E2E74FF0FF306061DA
:104A5000206180202071032D2CD104F16400FFF728
:104A600027FC012826D1791C204600F033F808BB2A
:104A700084F8048004F23220FFF71AFCA0F52A41E2
:104A8000553917D104F13400FFF707FC0F4988426C
:104A900010D104F50670FFF700FC0D49884209D1DA
:104AA00004F50770FFF7F9FB606104F50870FFF784
:104AB000F4FB206103482570001F0188491C018018
:104AC000E180F2E698000020F5FFFF0F52526141AD
:104AD0007272416170B50446006B0D460026A84213
:104AE0000FD0204600F040F906000AD1607801237B
:104AF0002A4604F13401FEF7D7FC08B1751E0126E1
:104B00002563304670BD2DE9F047022617460D4655
:104B1000044602297DD3A069A8427AD920784FF0B3
:104B20000109012804D0022840D003287AD154E09A
:104B3000A18905EB5508B8FBF1F0616A01442046F4
:104B4000FFF7C8FF06006DD1A189B8FBF1F201FBA8
:104B500012802044343008F10108E90704D00178BC
:104B6000FAB262F31F1100E03946017084F8039035
:104B7000A189B8FBF1F0616A01442046FFF7AAFF62
:104B800006004FD1A189B8FBF1F201FB128020444D
:104B90003430E90702D0C7F3071105E00178C7F305
:104BA000032201F0F0011143017039E0A089616A2C
:104BB0004008B5FBF0F001442046FFF78BFF0600EC
:104BC00030D1A1896800B0FBF1F201FB1200204452
:104BD000B9B2343000F07FF822E0A089616A800821
:104BE000B5FBF0F001442046FFF774FF060019D131
:104BF000A089AD00B5FBF0F100FB1150204434302A
:104C0000FFF74BFB67F31B000146A089B5FBF0F2F1
:104C100000E007E000FB12502044343000F053F86D
:104C200084F803903046BDE8F0872DE9F04105682F
:104C300013460E46074602292DD3A869B0422AD949
:104C40003BB14FF0FF3219462846FFF75CFF0028C2
:104C50001FD131463846FFF77BFA040018D0012CEB
:104C600019D0601C19D0002231462846FFF74BFFAF
:104C700000280ED1D5E90510821E914205D2491CAB
:104C80006961297941F0010129712646B042E0D8D5
:104C90000020BDE8F0810220FBE70120F9E770B5B4
:104CA0000C460646154691B204F11A0000F013F8BE
:104CB0003078032806D1290C04F11400BDE87040B7
:104CC00000F009B870BD0170090A4170090A8170CD
:104CD000090AC17070470170090A417070470000ED
:104CE00070B5044600F040F8050036D1207803285E
:104CF0002CD12079012829D1020304F134000021AC
:104D00000646FFF79FFD4AF6552104F23220FFF7D1
:104D1000E2FF13493046FFF7D6FF124904F506704B
:104D2000FFF7D1FF04F507706169FFF7CCFF04F5C9
:104D300008702169FFF7C7FF226A0123521C226312
:104D400060783146FEF7CEFB0020207100226078AB
:104D50001146FEF793FB00B10125284670BD000007
:104D6000525261417272416170B50446C0780025AB
:104D700048B104F13401607801230E46226BFEF73E
:104D8000B1FB10B10125284670BD0020E070216BF9
:104D9000606A0A1AE0698242F5D2A278022AF2D148
:104DA0000A18607801233146FEF79CFBEBE770B5EB
:104DB0000E4604004FF009050CD0206850B1017870
:104DC00041B1A188C288914204D14078FEF77CFBB2
:104DD000C00703D000203060284670BD0025206841
:104DE000F9E7010202030405060708090A0B0C0D86
:104DF0000E0F10100000000000000000010203046C
:104E0000060708090000000001020304809A4541DA
:104E10008E418F804545454949498E8F9092924FEA
:104E2000994F555559999A9B9C9D9E9F41494F5525
:104E3000A5A5A6A7A8A9AAABACADAEAFB0B1B2B3B9
:104E4000B4B5B6B7B8B9BABBBCBDBEBFC0C1C2C3AA
:104E5000C4C5C6C7C8C9CACBCCCDCECFD0D1D2D39A
:104E6000D4D5D6D7D8D9DADBDCDDDEDFE0E1E2E38A
:104E7000E4E5E6E7E8E9EAEBECEDEEEFF0F1F2F37A
:104E8000F4F5F6F7F8F9FAFBFCFDFEFF010004006B
:104E900010004000000100020000010002000400B8
:104EA00008001000200000000700000000000000C3
:104EB0000000000000000000D84E000800000020A4
:104EC000A4000000282C00087C4F0008A40000204B
:104ED00064CC0000382C0008010000000D00000028
:104EE000000000002D2D2D2D202020573235715827
:104EF00058C7FDB6AF204641544653CEC4BCFECF82
:104F0000B5CDB3B2E2CAD444656D6F2020202D2DFB
:104F10002D2D0D0A00000000000000000000000020
:104F20000000000001000000100000000000000070
:104F300000127A0000000000D0C500200D290008F2
:104F4000F12A0008DD2A0008F5280008052B0008D2
:104F5000812B0008152B0008F52800080D290008F2
:104F6000C52A0008B52A0008D52A0008000000005C
:0C4F700000000000000000000000000035
:0400000508000131BD
:00000001FF
