:020000040800F2
:10000000D84F002045010008C90500081105000867
:10001000C50500082F020008A91100080000000013
:10002000000000000000000000000000470E000873
:10003000F10300080000000075060008590F0008D1
:100040005F0100085F0100085F0100085F01000810
:100050005F0100085F0100085F0100085F01000800
:100060005F0100085F0100085F0100085F010008F0
:100070005F0100085F0100085F0100085F010008E0
:100080005F0100085F0100085F0100085F010008D0
:100090005F0100085F0100085F0100085F010008C0
:1000A0005F0100085F0100085F0100085F010008B0
:1000B0005F0100085F0100085F0100085F010008A0
:1000C0005F0100085F0100085F0100085F01000890
:1000D0005F0100085F0100085F0100085F01000880
:1000E0005F0100085F0100085F0100085F01000870
:1000F0005F0100085F0100085F0100085F01000860
:100100005F0100085F0100085F0100085F0100084F
:100110005F0100085F0100085F0100085F0100083F
:100120005F0100085F0100085F0100085F0100082F
:10013000DFF80CD000F04AF80048004715340008FA
:10014000D84F00200648804706480047FEE7FEE7F4
:10015000FEE7FEE7FEE7FEE7FEE7FEE7FEE7FEE777
:100160005D0F0008310100082DE9F05F0546002011
:1001700092469B4688460646814640241BE0284618
:1001800041464746224600F042F853465A46C01AB6
:10019000914110D311461846224600F029F82D1A35
:1001A00067EB01084F4622460120002100F020F8AD
:1001B00017EB00094E41201EA4F10104DFDC484684
:1001C00031462A464346BDE8F09F0000064C074DE5
:1001D00006E0E06840F0010394E807009847103417
:1001E000AC42F6D3FFF7A8FF983E0008B83E0008DF
:1001F000202A04DB203A00FA02F1002070479140E7
:10020000C2F1200320FA03F3194390407047202ADB
:1002100004DB203A21FA02F00021704721FA02F3B0
:10022000D040C2F12002914008431946704700BFF8
:10023000FEE7000000F0805111B10349086001E0C1
:100240000249486070470000040402400000024078
:1002500021B1026842F00102026004E002684FF638
:10026000FE731A400260704701684FF6FE7211403B
:1002700001600021016041608160C1604B4988429A
:1002800008D14A490839496841F00F01474A083AFC
:1002900051608AE045491431884208D14349083900
:1002A000496841F0F001414A083A51607DE03F4918
:1002B0002831884208D13D490839496841F47061C4
:1002C0003A4A083A516070E038493C31884208D1D6
:1002D00036490839496841F47041344A083A516056
:1002E00063E032495031884208D1304908394968C1
:1002F00041F470212D4A083A516056E02B4964318F
:10030000884208D129490839496841F47001274ACF
:10031000083A516049E025497831884208D123499B
:100320000839496841F07061204A083A51603CE060
:100330001F49884206D1011F096841F00F01021FC1
:10034000116032E01A491431884208D11849091F56
:10035000096841F0F001164A121F116025E01449A6
:100360002831884208D11249091F096841F4706197
:100370000F4A121F116018E00D493C31884208D124
:100380000B49091F096841F47041094A121F1160A5
:100390000BE007495031884207D10549091F096818
:1003A00041F47021024A121F116070470800024098
:1003B0000804024010B50022026847F6F0739A4321
:1003C0000C6A8B6823430C6923434C6923438C6973
:1003D0002343CC6923434C6A23438C6A23431A4347
:1003E0000260CB6843600B6883604B68C36010BDDC
:1003F00070472DE9F0410246002500260020002329
:100400000024002791F803C00CF00F0591F803C0F9
:100410000CF0100CBCF1000F03D091F802C04CEAB4
:10042000050591F800C0BCF1000F31D01468002020
:100430002BE04FF0010C0CFA00F3B1F800C00CEA0D
:1004400003069E4220D183004FF00F0C0CFA03F7F5
:10045000BC4305FA03FC4CEA040491F803C0BCF168
:10046000280F06D14FF0010C0CFA00FCC2F814C0A2
:100470000AE091F803C0BCF1480F05D14FF0010C20
:100480000CFA00FCC2F810C0401C0828D1D314603C
:10049000B1F800C0BCF1FF0F34DD546800202EE03D
:1004A00000F1080C4FF0010808FA0CF3B1F800C095
:1004B0000CEA03069E4221D183004FF00F0C0CFA88
:1004C00003F7BC4305FA03FC4CEA040491F803C0AB
:1004D000BCF1280F05D100F1080C08FA0CF8C2F89D
:1004E000148091F803C0BCF1480F07D100F1080C4B
:1004F0004FF0010808FA0CF8C2F81080401C0828D8
:10050000CED35460BDE8F08141617047016170470E
:1005100000BFFEE72DE9F04107460D4616461C4692
:100520000121084600F0A8F83846FFF79DFE0E4866
:1005300004800E480560466010200C49886008461B
:10054000C460002008618020486100208861C86183
:1005500008624FF480504862002088623846FFF7F6
:1005600029FFBDE8F08100005A000020804B0020E8
:100570002DE9F04107460D4616461C460121084666
:1005800000F07AF83846FFF76FFE0C4804800C48FC
:100590000560466000200A4988600846C460002063
:1005A00008618020486100208861C8610862486253
:1005B00088623846FFF7FEFEBDE8F0815A00002051
:1005C000AC4B002000BFFEE7704708B54FF4A060B9
:1005D00000F046F825208DF8000001208DF801007C
:1005E0008DF802008DF80300684600F001F808BDA0
:1005F00070B5002100230F22C47804B3154C246881
:1006000004F4E064C4F5E064210AC1F10403CA40C3
:10061000447804FA03F184781440214309010E4C14
:100620000678A155047804F01F050124AC40057834
:100630006D11AD0005F1E025C5F8004109E0047831
:1006400004F01F050124AC40044D0678761145F8EE
:10065000264070BD0CED00E000E400E080E100E029
:1006600002490143024A1160704700000000FA0588
:100670000CED00E07047000029B1064A52690243C0
:10068000044B5A6104E0034A52698243014B5A61A8
:10069000704700000010024029B1064A92690243E7
:1006A000044B9A6104E0034A92698243014B9A61C8
:1006B000704700000010024030B5002100220024E5
:1006C00000232D4D6D6805F00C0121B1042905D0E2
:1006D000082923D105E0294D056022E0274D05605A
:1006E0001FE0254D6D6805F47012234D6D6805F40B
:1006F0008034022505EB92421CB9214D554305601B
:100700000BE01D4D6D6805F400351DB11C4D5543C2
:10071000056002E0194D5543056002E0174D056084
:1007200000BF00BF144D6D6805F0F0010909154DBB
:100730006B5C0568DD4045600F4D6D6805F4E06158
:10074000090A104D6B5C4568DD4085600A4D6D6897
:1007500005F46051C90A0B4D6B5C4568DD40C5600E
:10076000054D6D6805F44041890B074D6B5CC5680C
:10077000B5FBF3F5056130BD0010024000127A00B0
:1007800000093D00410000205100002021B10288F5
:1007900042F04002028004E002884FF6BF731A4024
:1007A000028070472DE9F04106460C461546680068
:1007B000C11700EB1161C1F307270FB1384600E004
:1007C0000220074610214048FFF79EFE032000F05C
:1007D000AFFAC4F3074000F0ABFAC4F3072000F00F
:1007E000A7FAE0B200F0A4FA00213848FFF730FD84
:1007F00000220221364800F0F1FA00213348143873
:10080000FFF726FD00220121314800F0E7FA2F48CA
:100810003038006B20F001002C493039086308465D
:1008200005628662012129481438FFF711FD274827
:100830003038006B40F00100244930390863012250
:100840001146234800F0CAFA20483038006B20F0E7
:1008500001001E493039086308464563C66301211B
:100860001A48FFF7F5FC19483038006B40F00100DA
:1008700016493039086301220221154800F0AEFA0A
:10088000384601F0F5F92020FFF7D4FC4FF4007052
:10089000FFF7D0FC00210D48FFF7DAFC002202210F
:1008A0000B4800F09BFA002108481438FFF7D0FCF1
:1008B00000220121064800F091FA10210248FFF7BA
:1008C00025FEBDE8F0810000000801403000024034
:1008D000003001402DE9F05F07460E4614464FF008
:1008E0000008C146C2460025AB4606F0FF0ACAF121
:1008F0000000C5B22046E11704EB1161C1F30728DF
:10090000E11704EB11610912A4EB012101F0FF09C9
:10091000BAF1000F20D1B8F1000F05D122463146BF
:10092000384600F04FF964E009E04FF48072314638
:10093000384600F047F906F5807607F58077B8F17C
:100940000000A8F1010101F0FF08EED14A4631464E
:10095000384600F037F94CE0B8F1000F18D1A9453E
:1009600010DDA9EB050000F0FF0B2A4631463846A2
:1009700000F028F92E442F445A463146384600F0FC
:1009800021F936E022463146384600F01BF930E0C6
:10099000601B84B22046E11704EB1161C1F3072804
:1009A000E11704EB11610912A4EB012101F0FF0929
:1009B0002A463146384600F005F92E442F4409E016
:1009C0004FF480723146384600F0FCF806F5807628
:1009D00007F58077B8F10000A8F1010101F0FF08E8
:1009E000EED1B9F1000F04D04A463146384600F046
:1009F000E9F8BDE8F09F2DE9F84F83460E4615460D
:100A00001F464FF00008C146C24600240020009057
:100A100005F0FF0ACAF10000C4B2C7F3072807F0C7
:100A2000FF09BAF1000F23D1B8F1000F06D13B4600
:100A300032462946584600F0B9FB61E00AE04FF41F
:100A4000807332462946584600F0B0FB05F58075A4
:100A500006F58076B8F10000A8F1010101F0FF0869
:100A6000EDD14B4632462946584600F09FFB47E001
:100A7000B8F1000F1BD1A14512DDA9EB0400C0B2F3
:100A80000090234632462946584600F08FFB254405
:100A90002644324629465846009B00F087FB2FE04B
:100AA0003B4632462946584600F080FB28E03F1B73
:100AB000C7F3072807F0FF09234632462946584660
:100AC00000F074FB254426440AE04FF4807332465C
:100AD0002946584600F06AFB05F5807506F58076D4
:100AE000B8F10000A8F1010101F0FF08EDD1B9F162
:100AF000000F05D04B4632462946584600F056FBBB
:100B0000BDE8F88F08B501210803FFF7C5FD0121F5
:100B10000420FFF7C1FD1020ADF8000003208DF880
:100B2000020010208DF8030069462348FFF761FC9E
:100B300001210420FFF7B0FD2020ADF800001820AF
:100B40008DF8030069461C48FFF753FC012104207F
:100B5000FFF7A2FD4020ADF8000069461648FFF7F8
:100B600048FC01210420FFF797FD8020ADF800002C
:100B700069461148FFF73DFC10210F48FFF7C6FCFE
:100B800000200E4908804FF4827048800020888041
:100B90000220C8800120088140024881002088810D
:100BA000C88107200882064800F02FF90121044877
:100BB000FFF7ECFD08BD0000000801406C3B002081
:100BC0000030014070B506460C46154600F0E6F8C8
:100BD00010212248FFF798FC022000F0A9F8C4F386
:100BE000074000F0A5F8C4F3072000F0A1F8E0B238
:100BF00000F09EF8B5F5807F04DD4FF4807518A0F5
:100C000000F01EFD2348006B20F00100214908631D
:100C100008464563C66301211E483030FFF718FBC4
:100C2000012202211C4800F0D9F8022001F020F82E
:100C30004FF40070FFF7FEFA002116483030FFF73E
:100C400007FB00220221144800F0C8F810210348D5
:100C5000FFF75CFC00F088F870BD00000008014060
:100C60003C3C2D464C4153482D4552524F522D3E4F
:100C70003E205350495F464C4153485F5061676581
:100C8000577269746520746F6F206C61726765219B
:100C90000A00000000000240003001402DE9F04150
:100CA000002400250026002710210F48FFF72CFC08
:100CB0009F2000F03DF8FF2000F03AF80546FF20A5
:100CC00000F036F80646FF2000F032F80746102103
:100CD0000548FFF71BFC280440EA062040EA070409
:100CE0002046BDE8F08100000008014010B5044630
:100CF00000F054F800F038F810210C48FFF704FC1D
:100D0000202000F015F8C4F3074000F011F8C4F3F8
:100D1000072000F00DF8E0B200F00AF810210348B7
:100D2000FFF7F4FB00F020F810BD000000080140C0
:100D300010B5044600BF02210A4800F058F8002808
:100D4000F9D02146074800F05EF800BF01210548B0
:100D500000F04DF80028F9D0024800F051F8C0B278
:100D600010BD00000030014010B5002410210A48D9
:100D7000FFF7CAFB0520FFF7DBFF00BFFF20FFF7EF
:100D8000D7FF044604F001000028F7D110210248E3
:100D9000FFF7BCFB10BD00000008014010B510219A
:100DA0000548FFF7B1FB0620FFF7C2FF10210248FC
:100DB000FFF7ACFB10BD00000008014010B510218A
:100DC0000548FFF7A1FBAB20FFF7B2FF1021024857
:100DD000FFF79CFB10BD0000000801401AB183889A
:100DE0000B43838002E083888B43838070470246F5
:100DF000002013890B400BB1012000E00020704758
:100E00000146888970478181704710B500220288A9
:100E100002F441520B884C8823438C882343CC88AE
:100E200023430C8923434C8923438C892343CC8956
:100E300023431A430280838B4FF2FF742340838342
:100E40000B8A038210BD704710B500F001F810BD89
:100E50000CB50020019000903348006840F48030C9
:100E60003149086000BF3048006800F4003000904D
:100E70000198401C0190009818B90198B0F5A06F36
:100E8000F1D12948006800F4003010B10120009031
:100E900001E0002000900098012843D12348006819
:100EA00040F01000214908600846006820F0030067
:100EB00008600846006840F0020008601A48406870
:100EC000194948600846406848600846406840F450
:100ED000806048600846406820F47C1048600846FE
:100EE000406840F4E81048600846006840F08070B0
:100EF000086000BF0C48006800F000700028F9D0BE
:100F00000948406820F003000749486008464068E7
:100F100040F00200486000BF0348406800F00C0049
:100F20000828F9D10CBD000000100240002002404A
:100F3000042808D14FF0E021096941F004014FF085
:100F4000E022116107E04FF0E021096921F004017E
:100F50004FF0E022116170477047000010B5134850
:100F6000006840F0010011490860084640681049D7
:100F700008400E494860084600680E4908400B4981
:100F800008600846006820F4802008600846406831
:100F900020F4FE0048604FF41F008860FFF754FF04
:100FA0004FF000600449086010BD000000100240CE
:100FB0000000FFF8FFFFF6FE08ED00E021B1828996
:100FC00042F40052828104E082894DF6FF731A4098
:100FD0008281704700B585B001210420FFF75CFBDA
:100FE00001218803FFF758FB4FF40070ADF81000A3
:100FF00018208DF8130003208DF8120004A917485B
:10100000FFF7F7F94FF48060ADF8100004208DF879
:10101000130004A91148FFF7ECF94FF4E1300090F8
:101020000020ADF80400ADF80600ADF80800ADF8FA
:101030000C000C20ADF80A006946094800F044F89D
:10104000FFF7C3FA012240F22551054800F017F8D6
:1010500001210348FFF7B2FF05B000BD00080140C1
:101060000038014002460020B1F5007F00D100BFEA
:1010700013880B400BB1012000E000207047F0B551
:101080000346002400260025002040F66A17B942D6
:1010900000D100BF1846C1F3421401F01F0601271A
:1010A00007FA06F5012C01D10C3004E0022C01D125
:1010B000103000E014301AB107682F43076002E0D7
:1010C0000768AF430760F0BD2DE9F04786B00546DD
:1010D0000E460024A24600BFA1460027B08900B1F9
:1010E00000BF2F462C8A4CF6FF700440F088044362
:1010F0002C82AC894EF6F3100440B0883189084345
:10110000718908430443AC81AC8A4FF6FF40044028
:10111000B0890443AC8201A8FFF7CEFA1F4887428A
:1011200002D1DDF810A001E0DDF80CA0A88900F4E0
:10113000004040B10AEBCA0000EB0A1031684900D8
:10114000B0FBF1F807E00AEBCA0000EB0A103168C7
:101150008900B0FBF1F86420B8FBF0F0040120092D
:10116000642101FB1089A88900F4004040B13220BD
:1011700000EBC900B0FBF1F000F00700044308E009
:10118000322000EB09106421B0FBF1F000F00F00F9
:1011900004432C8106B0BDE8F08700000038014010
:1011A000C1F308028280704700BFFEE72DE9F843D3
:1011B00004460E4617461D461CA000680090300CE1
:1011C0008DF80100300A8DF80200F0B28DF80300AE
:1011D000B846204600F04EF90020E1688847042117
:1011E000684662689047B5F5807F0DD80A2D04D215
:1011F000A9B24046626890470DE0A9B24046626AD3
:101200009047E06A804706E04FF480714046626A8A
:101210009047E06A80470120E1688847204600F057
:10122000E5F8204600F014F9BDE8F883020000005C
:101230002DE9F84304460D4617461E46B84612A04F
:1012400000680090280C8DF80100280A8DF8020033
:10125000E8B28DF803000020E16888470421684661
:10126000626890470A2E04D2B1B24046A268904705
:1012700005E0B1B24046A26A9047E06A804701208B
:10128000E1688847BDE8F8830300000038B50546EB
:101290000C460020E968884711A0006800900121F1
:1012A00068466A68904703210DF10100AA689047DB
:1012B0009DF8010020602068000220609DF8021067
:1012C0002068084320602068000220609DF8031019
:1012D0002068084320600120E968884738BD000085
:1012E0009F00000038B504460D4610A0006800902D
:1012F000280C8DF80100280A8DF80200E8B28DF85C
:101300000300204600F0B6F80020E1688847042179
:101310006846626890470120E1688847204600F0EF
:1013200065F8204600F094F838BD00002000000069
:101330002DE9F04781460D4617461E46B846002463
:1013400013E0281901034846FFF7CCFF28190203D0
:101350004FF4805341464846FFF74DFB701EA042B4
:1013600001DD08F58058601C84B2B442E9DBBDE8B9
:10137000F0872DE9F05F82460D4617461C46B846B9
:10138000102C06DA2303290342465046FFF750FF8C
:1013900029E00F2094FBF0F000F0FF090F2094FBF0
:1013A000F0F100FB114000F0FF0B00260DE070197A
:1013B000C0EB001001034FF4704342465046FFF764
:1013C00037FF08F57048701CC6B24E45EFDB4FEA98
:1013D0000B3305EB0900C0EB0010010342465046F9
:1013E000FFF726FF00BFBDE8F09F000038B50446B8
:1013F0006FF07F4511A0006800900020E1688847E9
:10140000012168466268904710E001210DF101005A
:10141000A26890479DF8010000F0010000B907E0C4
:101420006D1E1DB906A000F00BF901E0002DECD1F6
:1014300000BF0120E168884738BD000005000000BA
:10144000573235517878204552524F52200D0A00BC
:1014500038B5044606A0006800900020E16888477F
:1014600001216846626890470120E168884738BDDD
:101470000400000038B5044606A000680090002073
:10148000E168884701216846626890470120E16869
:10149000884738BD0600000010B5044624B110216D
:1014A0000448FFF733F803E010210248FFF72CF857
:1014B00010BD0000000801407047000070B50546EF
:1014C0000C466000C11700EB1161C1F30726002133
:1014D0003448FEF7BDFE002202213348FFF77EFCB0
:1014E000002130481438FEF7B3FE002201212E48B7
:1014F000FFF774FC2B483038006B20F001002949BD
:101500003039086308460462856201212548143891
:10151000FEF79EFE23483038006B40F00100214961
:1015200030390863012211461F48FFF757FC1D4858
:101530003038006B20F001001A4930390863084642
:101540004463C56301211748FEF782FE1548303811
:10155000006B40F001001349303908630122022179
:101560001148FFF73BFC304600F082FB2020FEF7DD
:1015700061FE4FF40070FEF75DFE00210948FEF7A2
:1015800067FE002202210848FFF728FC00210548D9
:101590001438FEF75DFE002201210348FFF71EFC10
:1015A00070BD0000300002400030014070B50446BC
:1015B0000D461248006B20F00100104908630846F0
:1015C0004563C46301210D483030FEF741FE01221E
:1015D00002210B48FFF702FC022000F049FB4FF408
:1015E0000070FEF727FE002104483030FEF730FE81
:1015F000002202210248FFF7F1FB70BD000002400B
:1016000000300140704770B504460D4604E0FF20ED
:10161000FFF78EFB2070641C281EA5F101018DB21E
:10162000F5D170BD70B504460D4603E02078FFF794
:101630007FFB641C281EA5F101018DB2F6D170BD9F
:101640000FB4054B10B503A9044A029800F018F82E
:1016500010BC5DF814FB00003D320008980000202B
:1016600002E008C8121F08C1002AFAD1704770476B
:10167000002001E001C1121F002AFBD170470000C9
:101680002DE9FF4F8DB09B460F460446002606E02D
:1016900025280BD05A460F999047641C761C207859
:1016A0000028F5D111B03046BDE8F08F0025A846DE
:1016B0000122984900E0054314F8013F203B02FA5B
:1016C00003F00842F7D120782E2817D114F8010F23
:1016D00045F004052A280ED06FF02F022078A0F1E3
:1016E000300109290AD808EB880102EB410100EB1F
:1016F0000108641CF2E757F8048B641C20786C28FE
:101700000DD004DC4C2812D06A2811D104E07428D2
:101710000DD07A280CD10AE045F4001507E0617875
:1017200045F48015814202D1641C05F58015641CC6
:101730002278692A45D008DC002AB3D0582A69D01B
:10174000632A10D0642A08D13BE0702A67D0732A3C
:1017500013D0752A5CD0782A5CD010465A460F996F
:101760009047761CD3E017F8040B8DF8000000209A
:101770008DF80100E946012003E057F8049B4FF083
:10178000FF3069074FF0000501D40AE06D1C4545A4
:101790000DDA8542FADB19F805100029F6D106E0CA
:1017A0006D1C8542FCDB19F805100029F8D12E4488
:1017B00004E019F8010B5A460F9990476D1EF8D2B4
:1017C000A5E00A200021CDE90801C5F30250022856
:1017D0000DD001CFC117031E71F100030DDA4FF0D8
:1017E000000CD0EB0C006CEB01012D2308E0FF1D79
:1017F00027F00707F7E80201EDE72B0504D52B23B7
:101800008DF8283001233BE0EB0739D02023F7E7A0
:101810000A2000E010200021CDE9080107E0102097
:10182000002145F00405CDE908014FF00808C5F393
:10183000025002280FD001CF00214FF0000A2B07E1
:101840001FD5702A0DD0DDE908C38CF0100C5CEABE
:10185000030C0CD015E0FF1D27F00707F7E8020185
:10186000EBE740228DF828204FF0010A0BE050EA08
:10187000010306D030238DF828308DF8292002236B
:101880009A46582A04D024A20DF120090B9209E0AF
:1018900026A2F9E7DDE90823FEF766FC0B9B9B5CBB
:1018A00009F8013D50EA0102F4D1ADEB0900203006
:1018B0000890680701D44FF001080899884502DDB7
:1018C000A8EB010000E000208046002506E00AA801
:1018D0005A46405D0F9990476D1C761C5545F6DBC6
:1018E00004E030205A460F999047761CB8F1000169
:1018F000A8F10108F5DC05E019F8010B5A460F992B
:101900009047761C0899481E08900029F4DC641C56
:10191000C5E600000928010030313233343536374E
:10192000383961626364656600000000303132332B
:1019300034353637383941424344454600000000CB
:1019400070B504460D4600202071401EE062294615
:10195000204602F0C7F808B1032070BD94F82E129B
:1019600094F82F0241EA00204AF65521884201D01E
:101970000220F2E794F86900010694F8680041EA51
:10198000004194F8670041EA002094F8661008438B
:1019900020F07F400D49884201D10020DDE794F816
:1019A0008500010694F8840041EA004194F8830020
:1019B00041EA002094F88210084320F07F40034958
:1019C000884201D10020C8E70120C6E74641540003
:1019D000024600E0521C107810B110788842F9D10C
:1019E000107870470246891E5069801E884201D8CF
:1019F000002070479378906A01FB0300F9E72DE916
:101A0000F04704468946B9F1000F06D1E76817B1DF
:101A10006069B84215D8012713E04946204601F015
:101A20001FFC0646022E02D20120BDE8F087701C82
:101A300008B93046F9E76069B04201D93046F4E7A9
:101A40004F463D4600BF6D1C6069A84204D8022580
:101A5000BD4201D90020E8E72946204601F000FCFC
:101A6000064606B909E0701C08B1012E01D13046C6
:101A7000DBE7BD42E7D10020D7E700BF6FF070423F
:101A80002946204602F048F88046B8F1000F08D1F8
:101A9000B9F1000F05D02A464946204602F03CF82D
:101AA0008046B8F1000F0BD1E5602069401C78B189
:101AB0002069401E2061607940F00100607107E0FC
:101AC000B8F1010F02D14FF0FF3000E001200546D0
:101AD0002846AAE72DE9F35F0198D0F8009001E0CD
:101AE00009F1010999F800002F28F9D099F80000B0
:101AF0005C28F5D0009886690B222021304601F041
:101B0000E7FF00252F46AB464FF0080A00BF5846B6
:101B10000BF1010B19F80040202C03DD2F2C01D014
:101B20005C2C00D153E02E2C01D057450DD3BAF1D7
:101B3000080F01D12E2C02D00620BDE8FC9F0827FB
:101B40004FF00B0AA806050EE1E7802C01DB45F0FB
:101B50000305812C20DBFE2C1EDC58460BF1010B0B
:101B600019F80080B8F1400F02DBB8F17E0F05DDF7
:101B7000B8F1800F06DBB8F1FE0F03DCAAF101001B
:101B8000B84201D80620D8E738467F1C345438467E
:101B90007F1C06F8008019E0214620A0FFF718FFFF
:101BA00008B10620C9E7412C04DB5A2C02DC45F0C1
:101BB000020508E0612C06DB7A2C04DC45F0010507
:101BC000A4F12000C4B238467F1C34549FE700BF04
:101BD00009EB0B0101980160202C01DC042000E0DE
:101BE000002004460FB90620A7E73078E52801D188
:101BF00005203070BAF1080F01D1A806050E05F0D6
:101C00000300012801D144F0100405F00C00042861
:101C100001D144F00804F47200208EE7222A2B2C14
:101C20003A3B3C3D3E3F5B5D7C7F000010B56FF072
:101C30000400FFF77DF90A4800680A49B0FBF1F09B
:101C4000094908700846007800EB4001C1EBC0105C
:101C50004FF6FF7101EAC0000449088010BD000082
:101C60000000002000127A005600002058000020DA
:101C70000146114A12884A434FF0E0235A6100227C
:101C80009A611A46126942F001021A6100BF4FF0D0
:101C9000E022106900F001021AB100F48032002A3B
:101CA000F5D04FF0E022126922F001024FF0E0235C
:101CB0001A6100229A617047580000202DE9F04116
:101CC00004460E460021204600F00FF90546EDB906
:101CD000002700BF2169206801F004FF054605B117
:101CE00013E060690078E52802D06069007820B9C7
:101CF000781C0746B04201D107E0002701212046A9
:101D000000F038F80546002DE4D000BF042D00D1C6
:101D100007252846BDE8F0812DE9F0410446002161
:101D2000204600F0E2F8054615B12846BDE8F081EE
:101D300000BF2169206801F0D5FE054605B116E017
:101D4000666937780FB9042511E0F07A00F00800D1
:101D500030B90B223046A16901F09AFE00B906E0C5
:101D60000021204600F006F80546002DE1D000BF16
:101D70002846DBE72DE9F04104468846E088461C0A
:101D8000B0B208B1206910B90420BDE8F081216823
:101D90004889C11700EBD1614911B6FBF1F201FB93
:101DA0001261002972D12069401C2061E06828B9C5
:101DB00020680089B04269D80420E6E72168488994
:101DC000C11700EBD1614911B6FBF1F1226892789D
:101DD000521E1140002959D1E168206801F040FAF3
:101DE0000546012D01D80220CFE7681C08B9012063
:101DF000CBE720684069A84242D8B8F1000F01D172
:101E00000420C2E7E1682068FFF7F9FD05460DB937
:101E10000720BAE7012D01D10220B6E7681C08B9F6
:101E20000120B2E7206801F0DDFF08B10120ACE736
:101E300021684A8901F13000002101F049FE29465C
:101E40002068FFF7CFFD2168C86200270EE001205F
:101E500021680871206801F0C5FF08B1012094E7EE
:101E60002068C06A401C2168C8627F1C2068807896
:101E7000B842ECD82068C06AC01B2168C86200BFA5
:101E8000E56029462068FFF7ADFD2061E680216806
:101E90004889C11700EBD1614911B6FBF1F201FB92
:101EA00012612268303202EB4111616100206CE75F
:101EB00070B5044601212046FFF700FF054695B99D
:101EC0002169206801F00EFE054665B92022002137
:101ED000606901F0FDFD0B22D4E9050101F0EBFD85
:101EE000012021680871284670BD2DE9F0410446A3
:101EF0000E46E680A568012D03D020684069A842FF
:101F000002D80220BDE8F0812DB9206800780328AE
:101F100001D12068456A45B920680089B04201D8DE
:101F20000220EFE72068476A24E021684889C1174A
:101F300000EBD16149112268927801FB02F812E0AE
:101F40002946206801F08CF90546681C08B9012073
:101F5000D8E7022D03D320684069A84201D80220A7
:101F6000D0E7A6EB08064645EAD229462068FFF7E7
:101F700039FD0746E5600FB90220C3E721684889AB
:101F8000C11700EBD1614911B6FBF1F13944216170
:101F900021684889C11700EBD1614911B6FBF1F204
:101FA00001FB12612268303202EB411161610020B5
:101FB000A8E770B50446012614B1012C11D100E048
:101FC00011E0FEF79FFD4FF4FA7500BF681E80B266
:101FD000051EFBD1FEF7F2FE012000F049F806468F
:101FE00001E0012600BF00BF304670BD10B50346BA
:101FF000042013B1012B16D100E016E0012904D012
:10200000022906D003290BD107E04FF4C064146005
:1020100006E04FF48054148002E00124146000BFF5
:1020200000BF002001E0042000BF00BF10BD2DE96B
:10203000F04105460E4614461F464FF0040815B100
:10204000012D0DD100E00EE000BF4FF6FF7000EA59
:10205000073221033046FEF7A5FB4FF0000802E0EF
:102060004FF0040800BF00BF4046BDE8F08100000B
:1020700070B50446012514B1012C0BD100E00BE032
:10208000FEF70CFE0649884202D125F0010500E06A
:10209000012501E0012500BF00BF284670BD0000FA
:1020A0001740EF002DE9F0470746884614461D46C5
:1020B0004FF0040915B90420BDE8F08717B1012FCE
:1020C00011D100E012E000BF26033046FEF70EFEFD
:1020D0004FF6FF7000EA053231464046FEF7FAFB44
:1020E0004FF0000902E04FF0040900BF00BF48466E
:1020F000E2E770B50546284600F015FD044634B900
:10210000284601F098FE04460CB9002028602046BD
:1021100070BD00002DE9F74F90B09146119801284D
:1021200003DD132013B0BDE8F08F10A801F03CF9D7
:102130000F900F98002801DA0B20F3E7FA490F9867
:1021400051F820500DB90C20ECE7002028700F98B2
:10215000C0B20C9000200B900C98FFF72AFF019062
:10216000019800F0010008B10320DBE7019800F0BE
:10217000040008B10A20D5E705F10A0202210C98F3
:10218000FFF734FF38B96889B0F5805F03DC6889F0
:10219000B0F5007F01DA0120C4E700BF04AA0121E5
:1021A0000C98FFF723FF10B90498802801D2012072
:1021B000B8E7119808B1002000E03F20824604985B
:1021C000A0EB0A000490A9F1010000EA090008B19F
:1021D0004FF00009B9F1000F1AD16889C11700EB5F
:1021E000D15149124FF4FA6292FBF1F1049AB2FB19
:1021F000F1F10A914FF0000B01E00BF1010BCB481C
:1022000030F81B100A988142F7D8C94830F81B9063
:10221000B9F5007F02D36889B9FBF0F9B9F1000F75
:1022200001D14FF00109B9F1800F01D94FF08009B8
:102230000498B0FBF9F8012640F6F670804500D30B
:1022400002264FF6F670804500D30326032E0CD1EC
:10225000082000EB880069890844401EB0FBF1F7B4
:10226000202003900020029019E0012E05D108EBF8
:102270004800401C4008C01C02E04FEA4800001D16
:10228000074668893844401E6989B0FBF1F7012090
:10229000039068894FF48041B1FBF0F002900398FD
:1022A00050440790079838440690029906980844CD
:1022B000059005984844A0EB0A000499884201D98A
:1022C0000E202FE709AA03210C98FFF78FFE28B9EB
:1022D000099818B10998B0F5004F01D9012009906B
:1022E000099905980844401E491E88430990099998
:1022F0000598081A0990032E08D1099903980844F3
:102300000390099907980844079001E00998074449
:10231000DDE90301081AC11B0298081AB0FBF9F89D
:10232000022E03D140F6F670804505D3032E05D169
:102330004FF6F670804501D20E20F3E6032E02D14F
:102340000C200D9010E0012E06D10498B0F5803FCE
:1023500002D201200D9007E00498B0F5803F01D231
:10236000042000E006200D9000BF119810B1F0206D
:102370000E9043E06A89002105F1300001F0A8FBCE
:1023800005F5F77401206070A0700020E0700D98D2
:102390002071FE206071049850443F21B0FBF1F0A1
:1023A000FF21B0FBF1F009903F21099841EA90002C
:1023B000A0710998E0713F20207200216172A17222
:1023C000E172049820730498010A61730498010C67
:1023D000A1730498010EE173552185F82E12AA21EC
:1023E00085F82F120123002205F130010C98FFF728
:1023F00059FE08B1012095E6F8200E9005F1300451
:102400006A890021204601F063FB0B2249A1204686
:1024100001F051FBB5F80AB084F80BB04FEA1B216C
:10242000217384F80D900398A0730398010AE17357
:1024300001202074032E01D1002001E04FF4007030
:10244000834684F811B04FEA1B21A1740498B0F5BB
:10245000803F05D20498E0740498010A217510E0C9
:10246000049884F820000498C0F307212120015526
:102470000498C0F30741222001550498010E23203F
:1024800001550E9860753F20207600216176FF206F
:10249000A076E17684F81CA04FEA1A2161774FEA12
:1024A0001A41A1774FEA1A61E17700F079FF0990AC
:1024B000032E4BD1099884F843000998C0F30721F3
:1024C000442001550998C0F307414520015509985A
:1024D000010E4620015584F82470C7F307212520FA
:1024E0000155C7F3074126200155390E2720015514
:1024F000022084F82C0000212D2001552E200155AA
:102500002F200155012084F830003120015506208C
:1025100084F8320033200155802084F840002920BF
:1025200084F8420013220BE05C0000206C3E00089F
:10253000823E0008EBFE904D53444F53352E300041
:102540008AA104F1470001F0B6FA1FE0099884F867
:1025500027000998C0F30721282001550998C0F3E6
:102560000741292001550998010E2A200155A77518
:10257000390AE175802084F82400292084F8260097
:1025800013227FA104F12B0001F095FA552084F865
:10259000FE01AA2140F2FF100155012352462146B7
:1025A0000C98FFF77FFD08B10120BBE5032E06D193
:1025B00001230AF1060221460C98FFF773FD0798E4
:1025C00008904FF0000B5FE06A890021204601F07F
:1025D0007FFA0E980990032E14D0012E01D16D4878
:1025E00001E06FF0FF0009990843099009982070F5
:1025F0000998000A60700998000CA0700998000EF4
:10260000E07019E0099860F0FF00099009982070C7
:102610000998000A60700998000CA0700998000ED3
:10262000E070FF202071FF216171A171E1712072C2
:102630006172A1720F21E1720898411C02460123C8
:10264000089121460C98FFF72DFD08B1012069E59E
:102650006A890021204601F03BFA012009900EE032
:102660000898411C02460123089121460C98FFF767
:1026700019FD08B1012055E50998401C09900998F9
:10268000B842EDD30BF1010BBBF1000F9CD0032E30
:1026900001D1484600E00298834600BF0898411CDB
:1026A00002460123089121460C98FFF7FBFC08B174
:1026B000012037E5ABF10100B0F1000BEED1032EA4
:1026C00049D15220207060706120A0704120E070DC
:1026D000722084F8E401722140F2E5100155412195
:1026E000401C01556121401C0155A8F1010084F8EE
:1026F000E801C0F3072140F2E9100155A8F10100FB
:10270000C0F307414FF4F5700155A8F10100010E27
:1027100040F2EB100155022084F8EC01002140F258
:10272000ED100155401C0155401C0155552084F801
:10273000FE01AA2140F2FF10015501230AF1010216
:1027400021460C98FFF7AEFC01230AF1070221464F
:102750000C98FFF7A7FC002211460C98FFF746FCE7
:1027600008B10120DEE40020DCE400004E4F204EE2
:10277000414D452020202046415433322020200066
:102780004E4F204E414D45202020204641542020D0
:102790002020200000FFFF00F7B582B01646039806
:1027A000019001A800F000FE0546002D02DA0B2082
:1027B00005B0F0BD0E4850F825400CB10020207047
:1027C000029810B10020029908700949029841F856
:1027D0002500029808B1012E01D00020E8E7002270
:1027E00003A902A800F0FEFA07463846E0E7000019
:1027F0005C0000202DE9F7438AB0054616461DB956
:1028000009200DB0BDE8F0830020286006F01F0607
:1028100026F001020BA903A800F0E4FA0746002FF6
:102820007ED1CDF824D003A80B9900F0BFFC074659
:10283000089C0FB904B9062706F01C00002851D0E7
:102840004FB1042F03D103A8FFF732FB074646F030
:102850000806089C09E0E07A00F0110008B107279B
:1028600003E006F0040000B10827002F39D106F07C
:102870000800002835D000F093FD804684F80E80D3
:102880004FEA1821E1734FEA184121744FEA1861A9
:1028900061740020E072207700216177A177E177F1
:1028A0002146039800F0A5FD81460021204601F055
:1028B0002DFA012003990871B9F1000F11D0039886
:1028C000D0F82C804946039801F0EAF9074647B949
:1028D000A9F101000399C8604146039801F002F98B
:1028E00007460EE06FB9E07A00F0100008B1042747
:1028F00007E006F0020020B1E07A00F0010000B12C
:10290000072747B906F0080008B146F020060398EB
:10291000C06AE8612C621FB9AE710020E87100E066
:1029200017E02146039800F064FD2861E07F01066E
:10293000A07F41EA0041607F41EA0020217F0843F7
:10294000E8600020A860A861039828602868C08813
:10295000A880384655E72DE9FF4F85B00446154657
:102960009A46DDF818B00020CAF80000204601F0B1
:1029700062FA0490049818B1049809B0BDE8F08F89
:10298000E07908B1E079F8E7A07900F0010008B932
:102990000720F2E7D4E90210401A0290029885421B
:1029A00000D9029DBAE021684989A068B0FBF1F224
:1029B00001FB1200002877D121684989A068B0FB8B
:1029C000F1F021688978491E084000F0FF09B9F14B
:1029D000000F17D1A06810B92069039004E0616965
:1029E000206800F03DFC03900398022802D20220E8
:1029F000E071C2E70398401C10B90120E071BCE708
:102A00000398606161692068FEF7ECFF064616B91D
:102A10000220E071B1E74E4420684089B5FBF0F830
:102A2000B8F1000F2DD009EB0800216889788842A1
:102A300003D920688078A0EB0908216848784346CC
:102A400032465946FFF7F3FA10B10120E07194E7DE
:102A5000A07900F0400078B1A069801B40450BD2FE
:102A6000A169891B23685B8901FB03B021684A893E
:102A700004F1240101F01FF82068408900FB08F7E9
:102A800042E0A069B04220D0A07900F0400080B1BF
:102A900021684878012304F12401A269FFF702FBB1
:102AA00018B10120E07168E710E0A07920F0400043
:102AB000A071216848780123324604F12401FFF710
:102AC000B6FA10B10120E07157E7A6612168498983
:102AD000A068B0FBF1F201FB1200216849890F1ACE
:102AE000AF4200D92F4621684989A068B0FBF1F2B6
:102AF00001FB120104F1240008443A46014601900A
:102B0000584600F0D8FF00BFBB44A0683844A0601E
:102B1000DAF800003844CAF80000ED1B002D7FF4FD
:102B200042AF002029E72DE9F0410446204601F09C
:102B300082F90746002F4CD1A07900F02000002830
:102B400047D0A07900F0400078B12168487801238F
:102B500004F12401A269FFF7A5FA10B10120BDE834
:102B6000F081A07920F04000A071E169206800F0B8
:102B7000B9FF0746002F2CD1256AE87A40F02000E3
:102B8000E872207B2877A089010A6977E068010C48
:102B9000A977E068010EE9772846216901F0B6F8C7
:102BA00000F0FEFB0646AE75310AE975310C297658
:102BB000310E69760020A8740021E974A07920F014
:102BC0002000A071012021680871206801F0A6F89A
:102BD00007463846C3E72DE9FF4F83B00446154644
:102BE0009B46049801900020CBF80000204601F09D
:102BF00022F90290029818B1029807B0BDE8F08F50
:102C0000E07908B1E079F8E7A07900F0020008B9AE
:102C10000720F2E7A0682844A168884200D2002576
:102C2000CFE021684989A068B0FBF1F201FB1200F6
:102C300000287ED121684989A068B0FBF1F02168A5
:102C40008978491E084000F0FF0ABAF1000F1ED132
:102C5000A06838B9276957B900212068FEF7CFFE70
:102C6000074604E061692068FEF7C9FE074607B918
:102C7000AAE0012F02D10220E071BEE7781C10B952
:102C80000120E071B9E76761206900B92761A07987
:102C900000F0400078B121684878012304F1240154
:102CA000A269FFF7FFF910B10120E071A5E7A07953
:102CB00020F04000A07161692068FEF793FE06468F
:102CC00016B90220E07198E7564420684089B5FBA8
:102CD000F0F9B9F1000F31D00AEB090021688978C9
:102CE000884203D920688078A0EB0A0921684878D7
:102CF0004B4632460199FFF7D5F910B10120E0713A
:102D00007BE7A069801B484511D2A069831B20681E
:102D1000B0F80AC0019803FB0C012068428904F155
:102D2000240000F0C8FEA07920F04000A0712068C7
:102D300000E017E0408900FB09F835E0A069B042E7
:102D40000FD0D4E9020188420BD2216848780123D0
:102D5000324604F12401FFF76AF910B10120E07155
:102D60004BE7A66121684989A068B0FBF1F201FB3D
:102D7000120021684989A1EB0008A84500D9A8469E
:102D800021684989A068B0FBF1F201FB120104F14E
:102D90002400084442460090019900F08CFEA0797E
:102DA00040F04000A07100BF019840440190A0682D
:102DB0004044A060DBF800004044CBF80000A5EBE5
:102DC0000805002D7FF42DAF00BFD4E90201884231
:102DD00001D9A068E060A07940F02000A071002037
:102DE0000BE700002DE9F74F88B00021089801603B
:102DF000099800F0D9FA07900798002803DA0B2009
:102E00000BB0BDE8F08FE549079851F820400CB9A8
:102E10000C20F5E708980460207878B16078FFF717
:102E200027F9804608F0010040B90A9820B108F05F
:102E3000040008B10A20E3E70020E1E70020207049
:102E4000079860706078FFF7B4F8804608F00100DA
:102E500008B10320D4E70A9820B108F0040008B1B3
:102E60000A20CDE7607804F10A020221FFF7BEF8DC
:102E700038B96089B0F5007F03DB6089B0F5805F09
:102E800001DD0120BCE7002739462046FEF758FD4A
:102E90000546012D01D06DBB2CE0002614E004F5A1
:102EA000F77101EB0610017951B1C17A0A06817AF6
:102EB00042EA0142417A42EA0121027A114300E0EA
:102EC00000214DF82610761C042EE8D3002606B10A
:102ED000761E00BF5DF8267027B139462046FEF702
:102EE0002FFD00E0022005461DB1701C0646042897
:102EF000F0D300BF032D01D1012081E70DB10D20DA
:102F00007EE73B20015D94F83C0041EA00206189A6
:102F1000884201D00D2073E74620015D94F84700F8
:102F200041EA0029B9F1000F0ED194F857000106CB
:102F300094F8560041EA004194F8550041EA002017
:102F400094F8541040EA0109C4F818904020005D3C
:102F5000E070E078012804D0E078022801D00D204C
:102F60004EE7E07809FB00F93D20005DA070A078F5
:102F700018B1A078411E084008B10D2040E741205B
:102F8000015D94F8420041EA002020816089C11768
:102F900000EBD1614911228992FBF1F301FB13216E
:102FA00009B10D202CE74320015D94F8440041EA6B
:102FB000002BBBF1000F0ED194F85300010694F8DA
:102FC000520041EA004194F8510041EA002094F88F
:102FD000501040EA010B3E20015D94F83F0041EAA9
:102FE00000200490049808B90D2009E76089C117F2
:102FF00000EBD1614911228992FBF1F20499494415
:103000001144069106998B4501D20D20F8E60698E9
:10301000ABEB0000A178B0FBF1FABAF1000F01D1DF
:103020000D20EDE6012540F6F670824500D302251D
:103030004FF6F670824500D303250AF10200606165
:10304000E76104983844206206983844A062032D52
:1030500016D1208908B10D20D2E694F85F00010650
:1030600094F85E0041EA004194F85D0041EA0020D6
:1030700094F85C100843606260698000059014E079
:10308000208908B90D20BBE6206A48446062022D01
:1030900002D16069400007E0207D00F00100616915
:1030A00001EB410100EB510005906089401E05993C
:1030B00008446189B0FBF1F0A169884201D90D2073
:1030C0009EE64FF0FF302061E06080206071032DAC
:1030D0005AD194F8601094F8610041EA0020012868
:1030E00052D1791C204600F0FDFCE8BB0020607145
:1030F00094F82E1294F82F0241EA00204AF6552146
:10310000884241D13320005D01063220005D41EA52
:1031100000413120005D41EA002094F8301008435E
:103120001F49884230D194F81702010694F816021C
:1031300041EA004194F8150241EA002094F8141283
:103140000843184988421FD194F81B02010694F8DD
:103150001A0241EA004194F8190241EA002094F869
:1031600018120843206100E00EE094F81F020106E7
:1031700094F81E0241EA004194F81D0241EA002041
:1031800094F81C120843E060257007480088401C32
:1031900080B205490880E080002031E65C00002014
:1031A0005252614172724161640000202DE9F34185
:1031B0000446019800782F2803D0019800785C28F5
:1031C00002D10198401C01900020A0600198007875
:1031D000202807D200212046FEF787FE0546002062
:1031E000606128E000BF01A92046FEF773FC054698
:1031F00005B11FE02046FEF78FFD0546A069C67A9F
:103200003DB1042D04D100BF06F0040000B905252E
:1032100010E006F0040000B10CE06769F87A00F0F5
:10322000100008B9052505E03946206800F0E1F8EE
:10323000A060D8E700BF2846BDE8FC8170B5044611
:103240000D46E1B20548FDF7ABFF00BF8021034802
:10325000FDF708FF0028F9D0204670BD0038014076
:103260002DE9F05F04460D46022D02D36069A842A5
:1032700002D84FF001098FE04FF0FF392078012884
:1032800004D002283CD003287ED157E02F4607EB1C
:1032900057076089B7FBF0F0216A00EB010A51463D
:1032A000204600F01FFC00B175E038467F1C6189A4
:1032B000B0FBF1F201FB120104F1300010F80180C3
:1032C0006089B7FBF0F0216A00EB010A5146204605
:1032D00000F008FC00B15EE06089B7FBF0F100FB94
:1032E000117104F13000405C48EA002805F001004B
:1032F00010B14FEA181001E0C8F30B0081464AE014
:10330000B4F80AA00AEBDA704010B5FBF0F0216ABD
:1033100000EB010B5946204600F0E4FB00B13AE017
:1033200068006189B0FBF1F201FB120104F1300089
:103330000E183078717840EA01292CE0B4F80AA020
:103340004FEAEA700AEB90708010B5FBF0F0216A4A
:1033500000EB010B5946204600F0C4FB00B11AE017
:10336000A8006189B0FBF1F201FB120104F1300009
:103370000E18F0780006B17840EA0140717840EA12
:1033800001203178084300E002E020F0704902E0BB
:103390004FF0010900BF00BF4846BDE8F09F0000A4
:1033A000004870470000214670B502464FF0FF30DC
:1033B0001568E5B1116800E0491C0D78212D02D394
:1033C0000D783A2DF8D10D783A2D0FD1146814F8F4
:1033D000015BA5F130030A2B07D28C4205D1022BE9
:1033E00003D218464D1C2946156070BD002000BF51
:1033F000FBE710B502468C7ECB7E44EA03201378AF
:10340000032B05D10C7D4B7D44EA032340EA0340A6
:1034100010BD000008B5FEF709FCFDF7DBFDFDF768
:1034200071FB0520FEF724FCFDF7C8FC4FF4807308
:10343000AD4AAE49AE48FDF76DF84FF48073AA4A25
:10344000AA49AB481438FDF793F86946A948FDF737
:103450001DFFA9A00099FEF7F3F8ACA0FEF7F0F865
:10346000002003E07721B54A1154401CB0F5805F7D
:10347000F8DB00219F48FDF735FF0123AF4A00210B
:103480009C48FDF755FF002003E00021AB4A115492
:10349000401CB0F5805FF8DB0123A84A0021954865
:1034A000FDF767FF002400250BE0A448415DA4A0C0
:1034B000FEF7C6F8A148405D772801D1601C84B2B0
:1034C0006D1CB5F5805FF0DB21469FA0FEF7B8F8D4
:1034D00000240020FDF70AFCA3A0FEF7B1F80020AD
:1034E000AD49086009E016207F49AB4A126888544C
:1034F000A9480068401CA8490860A7480068B0F5C2
:10350000FA7FF0DB4FF4FA7200217748FDF7E2F919
:103510000020A149086009E0002073499E4A126812
:1035200088549D480068401C9B4908609A48006880
:10353000B0F5FA7FF0DB4FF4FA7200216A48FDF72C
:1035400031F900209449086013E06748924A1268F4
:10355000815C92A0FEF774F863488F490968405C6B
:10356000162801D1601C84B28B480068401C8A492F
:10357000086089480068B0F5FA7FE6DB214672A052
:10358000FEF75EF887A0FEF75BF890A0FEF758F80C
:1035900001229AA19A48FFF7FFF89A490870084655
:1035A00000780D2823D198A0FEF74AF80022114692
:1035B00092A0FEF7AFFD934908700846007888B9DD
:1035C0009CA0FEF73DF801228CA10020FFF7E4F853
:1035D0008C490870012289A18948FFF7DDF88949E3
:1035E000087014E09BA0FEF72BF800BFFEE78548AB
:1035F000007848B1834801789CA0FEF721F8A5A087
:10360000FEF71EF800BFFEE7ACA0FEF719F8B5A064
:10361000FEF716F80A22BEA1BF48FFF7EBF879497A
:10362000087008460078002820D1BCA0FEF708F8F2
:10363000CA4B2122CA49B848FFF7CDFA7149087030
:103640000846007848B9C5480168C6A0FDF7F8FFEC
:10365000C349CDA0FDF7F4FF04E06A480178D2A089
:10366000FDF7EEFFAC48FEF744FD02E0D4A0FDF705
:10367000E7FFDAA0FDF7E4FF0122A5A1A648FFF7C6
:10368000B9F8604908700846007800281ED1DDA00E
:10369000FDF7D6FFB14B4FF48062DF499E48FFF73C
:1036A0005AF9584908700846007848B9AB4801688B
:1036B000DAA0FDF7C5FFD849E1A0FDF7C1FF08E09A
:1036C00050480178E6A0FDF7BBFF02E0EAA0FDF755
:1036D000B7FF9148FEF70DFD012248A10020FFF73A
:1036E0005BF800BFFEE700009C0000200C300140AA
:1036F0003000024068000020466C61736820494435
:10370000BAC53A2025780D0A000000002D2D2D2D78
:103710002D2D2D2D2D2D2D573235515858C7FDB635
:10372000AFBFE2B6C1D0B4B2E2CAD42D2D2D2D2D3B
:103730002D2D2D2D2D2D0D0A00000000E427002039
:1037400025782020000000000D0A20C9C8C7F830E5
:1037500020CAFDBEDDD0B4C8EBD5FDC8B7202564B6
:1037600020B8F60D0A0000000D0A202D2D2D2D2D5C
:103770002D2D2D2D2D2DB1EAD7BCBFE2C7FDB6AF43
:10378000B6C1D0B4BFAACABC202D2D2D2D2D2D2DF4
:103790002D2D2D2D0D0A000014000020255820206D
:1037A000000000000D0A202D2D2D2D2D2D2D2D2D4D
:1037B0002D2DB6C1D0B4BDE1CAF82D2D2D2D2D2D46
:1037C0002D2D2D2D2D200D0A000000002A2A2A2A39
:1037D0002A2A20D5E2CAC7D2BBB8F65350492046A0
:1037E0004C41534820CEC4BCFECFB5CDB3CAB5D1F1
:1037F000E9202A2A2A2A2A2A0D0A0000313A000042
:103800009002002018000020A1B7464C415348BB4D
:10381000B9C3BBD3D0CEC4BCFECFB5CDB3A3ACBC73
:10382000B4BDABBDF8D0D0B8F1CABDBBAF2E2E2E03
:103830000D0A0000A1B7464C415348D2D1B3C9B9D3
:10384000A6B8F1CABDBBAFCEC4BCFECFB5CDB3A147
:10385000A30D0A00A1B6A1B6B8F1CABDBBAFCAA7F5
:10386000B0DCA1A3A1B7A1B70D0A0000A3A1A3A139
:10387000CDE2B2BF466C617368B9D2D4D8CEC4BCB5
:10388000FECFB5CDB3CAA7B0DCA1A3282564290D0E
:103890000A000000A3A1A3A1BFC9C4DCD4ADD2F229
:1038A000A3BA53504920466C617368B3F5CABCBBD8
:1038B000AFB2BBB3C9B9A6A1A30D0A00A1B7CEC4CC
:1038C000BCFECFB5CDB3B9D2D4D8B3C9B9A6A3ACD9
:1038D000BFC9D2D4BDF8D0D0B6C1D0B4B2E2CAD438
:1038E0000D0A00000D0A2A2A2A2A2A2A20BCB4BD61
:1038F000ABBDF8D0D0CEC4BCFED0B4C8EBB2E2CAE7
:10390000D42E2E2E202A2A2A2A2A2A0D0A00000026
:10391000313A312E74787400C0120020A1B7B4F28D
:10392000BFAA2FB4B4BDA84661744673B6C1D0B463
:10393000B2E2CAD4CEC4BCFE2E747874CEC4BCFE2F
:10394000B3C9B9A6A3ACCFF2CEC4BCFED0B4C8EB09
:10395000CAFDBEDDA1A30D0A000000001C0000206E
:1039600020000020A1B7CEC4BCFED0B4C8EBB3C9C0
:10397000B9A6A3ACD0B4C8EBD7D6BDDACAFDBEDDBC
:10398000A3BA25640A000000A1B7CFF2CEC4BCFEE2
:10399000D0B4C8EBB5C4CAFDBEDDCEAAA3BA0D0A29
:1039A00025730D0A00000000A3A1A3A1CEC4BCFE94
:1039B000D0B4C8EBCAA7B0DCA3BA282564290A0092
:1039C000A3A1A3A1B4F2BFAA2FB4B4BDA8CEC4BC16
:1039D000FECAA7B0DCA1A30D0A0000002A2A2A2AE9
:1039E0002A2A20BCB4BDABBDF8D0D0CEC4BCFEB634
:1039F000C1C8A1B2E2CAD42E2E2E202A2A2A2A2AEF
:103A00002A0D0A00A1B7B4F2BFAACEC4BCFEB3C946
:103A1000B9A6A1A30D0A0000E4220020A1B7CEC4DC
:103A2000BCFEB6C1C8A1B3C9B9A62CB6C1B5BDD735
:103A3000D6BDDACAFDBEDDA3BA25640D0A000000BA
:103A4000A1B7B6C1C8A1B5C3B5C4CEC4BCFECAFD3A
:103A5000BEDDCEAAA3BA0D0A2573200D0A00000010
:103A6000A3A1A3A1CEC4BCFEB6C1C8A1CAA7B0DCA5
:103A7000A3BA282564290A00A3A1A3A1B4F2BFAA6E
:103A8000CEC4BCFECAA7B0DCA1A30D0A0000000092
:103A9000F0B503461C460D46002000BF161EA2F1DD
:103AA000010207D014F8017B15F801CBA7EB0C0637
:103AB000301EF3D0F0BD70B503460C4603E014F899
:103AC000015B03F8015B151EA2F10102F7D170BD85
:103AD00030B5034601E003F8011B141EA2F10102F8
:103AE000F9D130BD70B504460D460026E06AA84203
:103AF00010D0204600F076F906465EB960780123C2
:103B00002A4604F13001FEF792FA10B14FF0FF356A
:103B10000126E562304670BD2DE9F05F04460E4691
:103B20001746022E02D36069B04202D84FF0020855
:103B3000B3E02078012804D0022852D0032872D1A3
:103B400072E0B14609EB59096089B9FBF0F0216ACE
:103B500000EB010A51462046FFF7C4FF8046B8F14A
:103B6000000F00D098E0484609F101096189B0FBD7
:103B7000F1F201FB120104F130000D1806F0010012
:103B800020B1F9B2287861F31F1000E038462870A0
:103B9000012020716089B9FBF0F0216A00EB010A75
:103BA00051462046FFF79EFF8046B8F1000F00D037
:103BB00072E06089B9FBF0F100FB119104F1300073
:103BC0000D1806F0010010B1C7F3071005E02878C2
:103BD00000F0F000C7F30321084328700120207192
:103BE0005AE0B4F80AA00AEBDA704010B6FBF0F025
:103BF000216A00EB010B59462046FFF773FF804610
:103C0000B8F1000F00D047E070006189B0FBF1F21D
:103C100001FB120104F130000D182F70380A687092
:103C20000120207138E034E0B4F80AA04FEAEA70CD
:103C30000AEB90708010B6FBF0F0216A00EB010BEC
:103C400059462046FFF74EFF8046B8F1000F00D0DE
:103C500022E0B0006189B0FBF1F201FB120104F136
:103C600030000D18E8780006A97840EA014069782C
:103C700040EA01202978084300F0704007432F7084
:103C8000380A6870380CA870380EE870012020716E
:103C900002E04FF0020800BF00BF4046BDE8F09FC1
:103CA0002DE9F04104460E46022E02D36069B0426F
:103CB00001D8022727E0002721E031462046FFF700
:103CC000CFFA054605B91DE0012D01D1022719E003
:103CD000681C08B9012715E0002231462046FFF78D
:103CE0001BFF074607B10DE02069401C30B1206979
:103CF000401C2061607940F0010060712E466069CF
:103D0000B042DAD800BF3846BDE8F08181760B0AB0
:103D1000C3760A0C02750B0E4375704770B50446E6
:103D2000204600F05FF80546002D59D12078032881
:103D30004FD1607901284CD16289002104F1300013
:103D4000FFF7C6FE552184F82E12AA2184F82F12FF
:103D5000522084F830005221312001556121322057
:103D60000155412133200155722184F8141284F841
:103D70001512412184F81612612184F81712217C52
:103D800084F81812208A010A84F819122069010C9B
:103D900084F81A122069010E84F81B12217B84F822
:103DA0001C12A089010A84F81D12E068010C84F835
:103DB0001E12E068010E84F81F12E069401CE062E8
:103DC0006078012304F13001E26AFEF76BF900200C
:103DD0006071607800221146FEF708F900B10125F4
:103DE000284670BD2DE9F041044600272079F8B13E
:103DF000E56A607801232A4604F13001FEF752F9A2
:103E000008B1012714E000202071206A281AA16956
:103E100088420DD2E67809E0A06905446078012364
:103E20002A4604F13001FEF73DF9761E022EF3D248
:103E30003846BDE8F08170B505462C464CB1206887
:103E400038B12068007820B12068C088A1888842F5
:103E500001D0092070BD21684878FEF709F900F00B
:103E6000010008B10320F5E70020F3E70004000299
:103E70000001800040002000100008000400020043
:103E800000000080004000200010000800400020DA
:103E90000010000800040002B83E000800000020E6
:103EA0009C00000060160008543F00089C000020A1
:103EB0003C4F00007016000800A24A0400000000F9
:103EC00000000000010203040607080900000000CA
:103ED0000000000000000000B1EAD7BCBFE2737030
:103EE0006920646D61B6C1D0B4202B204641544690
:103EF00053B2E2CAD4200D0A000000000001020300
:103F00000401020304060708090204060800000071
:103F100000000000000000000000000000000000A1
:103F2000B91400082516000807160008991400089F
:103F300000000000000000000000000099140008CC
:103F4000B9140008AD150008BD14000805160008D6
:043F5000000000006D
:0400000508000131BD
:00000001FF
