:020000040800F2
:100000006809002045010008BB1D0008B71D000855
:10001000B91D000853020008A125000800000000D7
:100020000000000000000000000000007120000837
:10003000AF02000800000000BD1D0008732000088A
:100040005F0100085F0100085F0100085F01000810
:100050005F0100085F0100085F0100085F01000800
:100060005F0100085F0100085F0100085F010008F0
:100070005F0100085F0100085502000861020008E6
:100080006D020008790200085F0100085F010008A6
:100090005F0100085F0100085F0100085F010008C0
:1000A0005F0100085F0100085F0100085F010008B0
:1000B0005F0100085F0100085F0100085F010008A0
:1000C0005F0100085F0100085F0100085F01000890
:1000D0005F0100085F010008092500085F010008B2
:1000E0005F0100085F0100085F0100085F01000870
:1000F0005F0100085F0100085F0100085F01000860
:100100005F0100085F0100085F0100085F0100084F
:100110005F0100085F0100085F0100085F0100083F
:100120005F0100085F0100085F0100085F0100082F
:10013000DFF80CD000F06CF8004800479D2E000856
:10014000680900200648804706480047FEE7FEE7AA
:10015000FEE7FEE7FEE7FEE7FEE7FEE7FEE7FEE777
:10016000D520000831010008202A04DB203A21FABA
:1001700002F00021704721FA02F3D040C2F12002C0
:100180009140084319467047D2B201E000F8012BB4
:10019000491EFBD270470022F6E710B513460A4607
:1001A00004461946FFF7F0FF204610BD2DE9F05F29
:1001B0000546002092469B468846064681464024D6
:1001C0001BE02846414647462246FFF7CDFF5346EF
:1001D0005A46C01A914110D311461846224600F0E3
:1001E00029F82D1A67EB01084F462246012000210D
:1001F00000F020F817EB00094E41201EA4F1010485
:10020000DFDC484631462A464346BDE8F09F000001
:10021000064C074D06E0E06840F0010394E8070053
:1002200098471034AC42F6D3FFF786FFC42F00087E
:10023000E42F0008202A04DB203A00FA02F1002013
:1002400070479140C2F1200320FA03F31943904014
:100250007047FEE7014800F055B900002005002076
:10026000014800F04FB90000DC040020014800F014
:1002700049B90000A0010020014800F043B9000086
:100280005C01002030B590F840500124AC40C56BB3
:100290006C60046863604368102B036803D0996046
:1002A0000068C26030BD9A600068C16030BD7047B0
:1002B00070B586B0304C00250295A06940F004006E
:1002C000A061A06900F004000490A06940F0010062
:1002D000A061A06900F0010004902848416821F065
:1002E000080141F0E061416002200190042000908B
:1002F0000320234E03906946304600F0AFFA0820F1
:10030000CDE900056946304600F0A8FAE06940F4FE
:100310000030E061E0691C4C00F4003004901948A2
:1003200020604FF4614060600C20C4E90505E56180
:100330002561E5602046A56001F066FC02F0EAF860
:1003400000221146262000F0FBFB262000F0EAFBED
:1003500021686FF010000860B21504F148012046D2
:1003600001F0B8FAA4F144000068016821F004012A
:10037000016006B070BD00000010024000000140A6
:100380000008014000440040E401002010B590F84E
:1003900021100022022905D00421816380F8202049
:1003A000012010BD01680B6823F00E030B6001688B
:1003B0000B6823F001030B6090F84030C46B0121FF
:1003C00001FA03F3636080F8211080F820201046C2
:1003D00010BD00002DE9F05F90F8211000240229E3
:1003E00003D004218163012485E001680A6822F0BA
:1003F0000E020A6001680A6822F001020A603F4E9C
:100400003E4FB215DFF8F4C0DFF8F090DFF8ECA053
:10041000DFF8E8B0DFF8E4E00168783F1301150287
:10042000ACF1640CA9F15009AAF13C0AABF1280B1C
:10043000AEF1140E4FF48018B14227D9B9420ED054
:10044000614512D049451DD0514518D0594518D0A5
:10045000714501D1424615E0294EB14201D1012238
:1004600010E0274E1436B14201D110220AE0244E8A
:100470002836B14206D0224A3C32914201D11A4676
:1004800000E02A461E49091F0A602BE0B94213D03A
:10049000614517D0494522D051451DD059451DD041
:1004A000714501D142461AE0B14202D14FF080724B
:1004B00015E0134EB14201D1012210E0104E143666
:1004C000B14201D110220AE00D4E2836B14206D0C9
:1004D0000B4A3C32914201D11A4600E02A460749B4
:1004E00080394A60012180F82110002180F8201015
:1004F000416B01B188472046BDE8F09F8000024073
:10050000080402402DE9F05FC16B0A6801680B68BE
:10051000046C4FF0040808FA04F8844D844E854FAB
:10052000DFF814C2DFF81492DFF814A2DFF814B277
:10053000DFF814E218EA020F65D05FEA437862D56B
:100540000A68920603D40A6822F004020A60DFF8FF
:10055000F0814FF48062016808F11408130114025D
:10056000414524D9A9420DD0B1420FD0B9421AD089
:10057000614515D0494515D0514501D1120312E00E
:10058000594501D104220EE0714501D140220AE013
:100590006D4D1435A94206D06B4A2832914201D1E3
:1005A0001A4600E022466749091F0A6029E0A9426D
:1005B00013D0B14215D0B94220D061451BD0494576
:1005C0001BD0514502D14FF4800217E0414502D1C2
:1005D0004FF0806212E0594501D104220EE07145CE
:1005E00001D140220AE0584D1435A94206D0564A9E
:1005F0002832914201D11A4600E022464B4908397F
:100600004A60C16A71E04FF0020808FA04F818EA7B
:10061000020F70D05FEA83786DD50A68920606D41F
:100620000A6822F00A020A60012180F82110DFF82E
:1006300010814FF40072016808F1140813011402CC
:10064000414524D9A9420DD0B1420FD0B9421AD0A8
:10065000614515D0494515D0514501D1120312E02D
:10066000594501D102220EE0714501D120220AE054
:10067000354D1435A94206D0334A2832914201D172
:100680001A4600E022462F49091F0A6029E0A942C4
:1006900013D0B14215D0B94220D061451BD0494595
:1006A0001BD0514502D14FF4001217E0414502D151
:1006B0004FF0007212E0594501D102220EE071455F
:1006C00001D120220AE0204D1435A94206D01E4A4D
:1006D0002832914201D11A4600E0224613490839D6
:1006E0004A60002180F82010816A00291CD0BDE8F2
:1006F000F05F0847FFE70825A540154214D01A0708
:1007000012D50A6822F00E020A6090F84020C36BEE
:10071000012101FA02F25A60816380F82110002160
:1007200080F82010016BE0E7BDE8F09F0800024070
:100730001C000240300002404400024058000240C9
:100740006C000240080402401C04024030B560B155
:100750001A4B026814219A4209D2194B1344B3FB75
:10076000F1F18900016417490AE0012030BD134B03
:100770005B421344B3FBF1F1890001640F4908396E
:10078000C163022180F82110136843F6F0718B4396
:10079000F0E901142143D0E902452C4321430469C7
:1007A0002143446921438469214319431160002195
:1007B0004163012242770177084630BD08040240B8
:1007C000F8FFFDBF0000024070B5044690F820001D
:1007D000002501280CD0012084F8200094F8216025
:1007E0000020012E06D084F820000225284670BD86
:1007F000022070BD022684F82160A063206806688C
:1008000026F0010606602046FFF73CFDE06A00285E
:100810002068016802D041F00E0106E021F00401D9
:1008200001602068016841F00A01016020680168E8
:1008300041F001010160D9E770B5044600F014F9F8
:100840000546601C02D004480078044400F00CF90E
:10085000401BA042FAD370BD100000202DE9F84FD4
:10086000DFF8C8910024A9F1040B23460F2709F1F2
:10087000040AABF1040ED1E00125A54006EA050209
:10088000AA4276D1DFF8A8C14E68A6EB0C086645EF
:100890002BD00DDC032E34D005DC36B3012E19D05D
:1008A000022E2FD11BE0112E16D0122E2AD119E0C4
:1008B000B8F5881F19D006DCB8F5803F15D0B8F51B
:1008C000801F1FD111E0B8F5001F0ED0B8F5041F2E
:1008D00018D10AE0CB6815E0CB681B1D12E0CB688D
:1008E00008330FE0CB680C330CE08B682BB1012B85
:1008F0004FF0080303D0456104E0042302E00561E2
:1009000000E00023FF2A01D8064601E000F10406BA
:100910004FEA840501D9A5F12005D6F8008007FA31
:1009200005FC28EA0C0803FA05F548EA0508C6F8AC
:1009300000804D68ED0070D53E4DAE6946F0010671
:10094000AE61AD6924F0030605F0010500953A4D4E
:1009500006EB050CDCF80850A607360F07FA06F878
:1009600025EA0805DFF8D480404503D14FF00008A0
:1009700025E052E0DFF8C880404502D14FF0010881
:100980001DE0DFF8C080404502D14FF0020816E0BC
:10099000DFF8B480404502D14FF003080FE0DFF8E4
:1009A000AC80404502D14FF0040808E0DFF8A08099
:1009B000404502D14FF0050801E04FF0060808FA63
:1009C00006F848EA0508CCF808804D68D9F80060B8
:1009D000ED024D4601D5164300E096432E604D686A
:1009E000DAF80060AD02554601D5164300E09643A3
:1009F0002E604D68DBF80060AD035D4601D51643FF
:100A000000E096432E604D68DEF80060ED03754609
:100A100001D5164300E096432E60641C0A68164612
:100A2000E2407FF429AFBDE8F88F000008040140E0
:100A300000001110001002400000014000080140B9
:100A4000000C01400010014000140140001801405A
:100A5000001C01408068084000D0012070470AB1A6
:100A6000016170470904FBE7014880687047000096
:100A700010000020024881680278114481607047AC
:100A800010000020074810B5016841F01001016016
:100A9000032000F075F80F2000F006F800F024F8AD
:100AA000002010BD0020024070B50D4D04464FF4EB
:100AB0007A712878B1FBF0F00A490968B1FBF0F0CF
:100AC00000F0F4FE48B9102C07D200222146501E37
:100AD00000F036F800206C6070BD012070BD000091
:100AE000100000201C0000200C4808B5816941F06E
:100AF00001018161816901F001010091C16941F049
:100B00008051C161C06900F0805000900448416884
:100B100021F0E06141F00071416008BD0010024029
:100B200000000140002809DB00F01F020121914074
:100B30004009800000F1E020C0F80011704700007B
:100B4000F0B40E4B1B680C46C3F30223C3F1070538
:100B5000042D00D90425191D072901D2002300E026
:100B6000DB1E012606FA05F1491E214099409E40F0
:100B7000761E16403143F0BC02F002B80CED00E0E6
:100B8000064900F0070208684FF6FF03184040EAE4
:100B90000220034A10430860704700000CED00E09B
:100BA0000000FA052DE9F0470F46050061D0434EDD
:100BB000306800F00700B84209D2306820F0070022
:100BC00038433060306800F00700B84251D12868DF
:100BD0003B4C810712D5400703D5606840F4E060C4
:100BE00060602878000703D5606840F4605060605A
:100BF0006068A96820F0F000084360602878C007AA
:100C000028D06868012810D02168022810D08907F0
:100C100000292EDA616821F0030101436160FFF7CA
:100C200023FF804641F288390DE021688903EFE710
:100C30008901EDE7FFF718FFA0EB0801494502D94C
:100C40000320BDE8F0876068696800F00C00B0EB35
:100C5000810FEFD1306800F00700B8420BD930683F
:100C600020F0070038433060306800F00700B842D9
:100C700001D00120E5E72878400705D56068E968DC
:100C800020F4E060084360602878000706D56068BB
:100C9000296920F4605040EAC100606000F038F833
:100CA0006168084AC1F30311515CC84006490860F5
:100CB00006480068FFF7F8FE0020C2E70020024067
:100CC00000100240AA2F00081C0000201400002081
:100CD0000448054900684968044AC1F30221515C8F
:100CE000C84070471C00002000100240BA2F0008C6
:100CF0000448054900684968044AC1F3C221515CAF
:100D0000C84070471C00002000100240BA2F0008A5
:100D10000E4A51680E4801F00C03042B11D0082B29
:100D20000FD10C48C1F38343C903C05C0AD5516895
:100D3000084AC1F34041921E515C054A5043B0FB42
:100D4000F1F070470449484370470000001002402A
:100D500000127A009A2F000800093D002DE9F84F93
:100D6000040070D02078C04DC00749D06868C0F337
:100D70008100012807D06868C0F38100022809D1EA
:100D80006868C00306D52868800339D560680028E4
:100D9000E7D035E06068B0F5803F0BD010B1B0F51A
:100DA000A02F11D0286820F480302860286820F413
:100DB000802002E0286840F480302860606890B1AC
:100DC000FFF752FE06460AE0286840F480202860BB
:100DD000F0E700BFFFF748FE801B642873D828683F
:100DE0008003F7D50CE0FFF73FFE064605E000BFA5
:100DF000FFF73AFE801B6428F0D828688003F7D4F8
:100E000020789A4E80074FF001094FF0000839D53D
:100E1000686810F00C0F07D06868C0F381000228E2
:100E200009D16868C00306D42868800714D52069F2
:100E3000012808D110E02069B0B1C6F80090FFF792
:100E400013FE074605E00AE1FFF70EFEC01B02286D
:100E5000C4D828688007F7D52868616920F0F800B1
:100E600040EAC10028600DE0C6F80080FFF7FCFDF5
:100E7000074604E0FFF7F8FDC01B022823D82868C6
:100E80008007F7D4207800072CD57948A169D9B11B
:100E9000C0F80090FFF7E8FD074604E0FFF7E4FD27
:100EA000C01B02280FD8686A8007F7D571484FF435
:100EB000FA510068B0FBF1F0009000BF0098411EAD
:100EC0000091FAD20EE080E0C0F80080FFF7CCFD80
:100ED000074604E0FFF7C8FDC01B022875D8686A02
:100EE0008007F7D42078400760D5E8690027C00064
:100EF00008D4E86940F08050E861E869012700F013
:100F0000805000905C480168C90513D4016883468D
:100F100041F480710160FFF7A7FD824606E000BF43
:100F2000FFF7A2FDA0EB0A0064284ED8DBF8000012
:100F3000C005F5D5E06801280AD008B1052813D00E
:100F4000286A20F001002862286A20F0040002E0EC
:100F5000286A40F001002862E06841F2883B98B1BD
:100F6000FFF782FD82460BE0286A40F00400286209
:100F7000EEE700BFFFF778FDA0EB0A0159455AD80C
:100F8000286A8007F6D50CE0FFF76EFD824605E083
:100F9000FFF76AFDA0EB0A0159454CD8286A800783
:100FA000F6D41FB1E86920F08050E861E06988B3A9
:100FB0006968C1F38101022944D00228C6F8608023
:100FC00004D0FFF751FD044638E034E0FFF74CFD54
:100FD000074604E0FFF748FDC01B02282BD828680D
:100FE0008001F7D4206AB0F5803F05D16868A16818
:100FF00020F4003008436860D4E9080108436968B8
:1010000021F4741108436860C6F86090FFF72CFD66
:10101000044606E025E000BFFFF726FD001B02287E
:1010200009D828688001F7D51BE000BFFFF71CFD39
:10103000001B022802D90320BDE8F88F2868800130
:10104000F4D40EE00128F7D06868226A00F48031F9
:10105000914204D1616A00F47010884201D00120ED
:10106000EAE70020E8E700000010024000004242EA
:10107000800442421C00002000700040704770B5A0
:10108000040009D0606A002540B125616561A56250
:1010900094F8510040B10CE0012070BD6068B0F5DB
:1010A000827FF4D0E561F2E784F85050204600F0EA
:1010B0003FF8022084F851002068016821F04001C7
:1010C0000160A088218900F4827001F40441084382
:1010D000A18901F400610843217C01F00201084369
:1010E000217D01F001010843218B01F400710843C7
:1010F000217F01F03801084394F8201001F08001AD
:101100000843218D01F40051084321680860A0695B
:10111000042101EA1040216848602068C16921F477
:101120000061C1616565012084F85100002070BD37
:1011300070472DE9F84F044690F851001D461646B9
:101140000F46012838D160684FF00408B0F5827F5F
:1011500001D1A06830B3FFF787FC8246002F75D01D
:10116000002E73D094F85000012825D04FF00109CB
:1011700084F8509084F851804FF00008C4F85480EF
:10118000A763A687E687C4F83080A4F83480A4F863
:101190003680C4F84080C4F84480A068B0F5004FA1
:1011A0000CD015E084F85180009313460A4620467F
:1011B00000F091F9BDE8F88F0220FBE72068016894
:1011C00021F0400101602068016821F48041016044
:1011D00020680168490603D4016841F040010160BC
:1011E000E068C0B134E020688168C90709D0007B9D
:1011F000A16B0870A06B401CA063E08F401EE087CD
:1012000009E0FFF731FCA0EB0A00A84202D3681CFA
:1012100001D032E085B3E08F0028E4D11BE02068E4
:101220008168C90709D0C068A16B0880A06B801CC9
:10123000A063E08F401EE0870AE0FFF715FCA0EBFB
:101240000A00A84203D3681C02D016E012E09DB148
:10125000E08F0028E3D152462946204600F063FE85
:1012600008B12020606584F8519084F85080606D4A
:1012700000289FD001209DE7FFE784F8519084F873
:101280005080032096E7000070B5044690F85100A6
:10129000012829D1A068042318B96568B5F5827FB3
:1012A00017D0F9B1F2B194F85050012D1CD001259E
:1012B00084F8505084F8513000256565A163A287F9
:1012C000E28725646564A586E586B0F5004F0DD0FC
:1012D00016E084F851302046BDE8704013460A46B7
:1012E00000F0F2B9012070BD022070BD20680168D5
:1012F00021F0400101602068016821F48041016013
:10130000E16C1748C862E16C16488862E16C1648C7
:101310000863E06C4563E38F2168A26B0C31E06CDD
:10132000FFF752FA30B1606D40F01000606584F84C
:101330005050D7E720680168490603D4016841F09E
:101340004001016084F850502068416841F020015C
:1013500041602068416841F001014160002070BD9A
:10136000E11D0008FF1D0008BF1D00087047704701
:101370002DE9F84F984616468A460446FFF774FB57
:10138000814694F8510001281ED1BAF1000F73D0A4
:10139000002E71D094F85000012815D0012784F850
:1013A0005070032084F8510000256565C4F830A012
:1013B000A686E686A563A587E58765642564A0689B
:1013C000B0F5004F03D00CE00220BDE8F88F206894
:1013D000016821F0400101602068016841F480410A
:1013E000016020680168490603D4016841F04001AA
:1013F0000160E068B0F5006F606803D048B3012E6B
:1014000027D047E008B1012E1FD1206B216800884A
:10141000C86006E020688168890709D5216B0988C2
:10142000C160206B801C2063E08E401EE0860CE0D3
:10143000FFF71AFBA0EB0901414503D3B8F1FF3FC9
:1014400003D035E0B8F1000F32D0E08E0028E1D1B2
:1014500023E0206B21680078087306E0206881682B
:1014600089070AD5216B09780173206B401C206322
:10147000E08E401EE0860DE02BE0FFF7F5FAA0EBD2
:101480000901414503D3B8F1FF3F03D010E0B8F1A3
:10149000000F0DD0E08E0028E0D14A46414620469C
:1014A00000F06FFD08B120206065A06830B109E050
:1014B00084F8517084F85050032086E72068C16892
:1014C0008068009084F8517004F8505F60680028CC
:1014D000F3D0012079E72DE9FF4F81B01D469346F7
:1014E00004464FF001090E9EFFF7BEFA074694F836
:1014F00051006168012806D0B1F5827F3CD1A16816
:10150000C9BB042838D10298002871D0BBF1000F64
:10151000FBD0002DF9D094F8500001282CD04FF0CA
:10152000010A84F850A094F85100042802D0052044
:1015300084F851004FF00008C4F85480C4F838B063
:10154000E587A58702992163E586A586C4F84080D2
:10155000C4F8448020680168490603D4016841F05A
:1015600040010160E068B0F5006F606808D0F0B33A
:10157000012D49D081E0FFE7022005B0BDE8F08FE2
:1015800008B1012D39D1206B21680088C860206B1B
:10159000801C2063E08E401EE0862EE0206881687B
:1015A00089070FD5E18E69B1B9F1010F0AD1216B1D
:1015B0000988C160206B801C2063E08E401EE0869D
:1015C0004FF0000920688168C9070CD0E18F51B144
:1015D000C068A16B0880A06B801CA063E08F401ED8
:1015E000E0874FF00109FFF73FFAC01B01E00BE075
:1015F00067E0B04201D3701C50D1E08E0028CDD1FD
:10160000E08F0028CAD13EE0206B21680078087383
:10161000206B401C2063E08E401EE0862DE0206899
:10162000816889070FD5E18E69B1B9F1010F0AD13F
:10163000216B09780173206B401C2063E08E401EF3
:10164000E0864FF0000920688168C9070CD0E18F5F
:1016500051B1C068A16B0870A06B401CA063E08F03
:10166000401EE0874FF00109FFF7FEF9C01BB042B2
:1016700002D3701C01D011E086B1E08E0028CED1DB
:10168000E08F0028CBD13A463146204600F079FC65
:1016900050B12020606584F8508012E084F851A099
:1016A00084F85080032068E7A06818B92068C168F2
:1016B0008068009084F851A084F85080606D002804
:1016C000F1D0012059E7000070B5044690F85100B0
:1016D0006568012806D0B5F5827F3AD1A568A5BB1B
:1016E000042836D191B38AB383B394F8500001280B
:1016F0002FD0012084F8500094F85100042802D023
:10170000052084F85100002565652163A386E386E2
:10171000A263A387E3872564656494F851000428D5
:1017200019D0E16C2748C8622748E16C8862E16CF7
:1017300026480863E06C4563E38F2168A26B0C3197
:10174000E06CFFF741F800BB0AE002E0FFE7012090
:1017500070BD022070BDE16C1D48C8621D48E4E701
:101760002068416841F001014160A06CC562A06C35
:101770008562A06C0563A06C4563E38E2268216BD3
:101780000C32A06CFFF720F830B1606D40F0100013
:10179000606584F85050DAE720680168490603D490
:1017A000016841F04001016084F8505020684168B0
:1017B00041F0200141602068416841F00201416030
:1017C000002070BDF51D0008CD1E0008BF1D0008DB
:1017D000E11D0008FF1D000870B5044690F8510097
:1017E00001281CD1C9B1C2B194F85000012816D00B
:1017F000012084F85000032084F85100002565651D
:101800002163A286E286A56365642564A587E587D2
:10181000A068B0F5004F04D00DE0012070BD02209B
:1018200070BD2068016821F04001016020680168F6
:1018300041F480410160A16C1748C862A16C17484F
:101840008862A16C16480863A06C4563E38E226829
:10185000216B0C32A06CFEF7B7FF30B1606D40F029
:101860001000606584F85050D7E720680168490689
:1018700003D4016841F04001016084F850502068B1
:10188000416841F0200141602068416841F0020157
:101890004160002070BD0000EB1D0008691E0008BB
:1018A000BF1D0008704770477047704710B5401E55
:1018B000B0F1807F01D3012010BD4FF0E0246061C2
:1018C0000F21601701F05CF90020A0610720206162
:1018D000002010BD38B5044690F84200202801D001
:1018E000022038BD51B14AB101202063002060635D
:1018F000204600F087FD216B012901D0012038BD71
:1019000021680A684968009121680C3151E8002F6C
:1019100042F0100241E80023002BF5D138BD000051
:1019200070B500681649884229D1164C2068406875
:10193000164AC0F580711448164B41800178491C45
:10194000017001211170124A1178491C117004F1C3
:101950008C01456801F596728D4202D14260196092
:1019600001E041601A60416806484FF480724430DB
:10197000FFF7B0FF2068016821F00401016070BD2D
:1019800000440040A00100202000002002000020B0
:10199000010000200C00002070470000F8B501682D
:1019A00004460868CA684B6910F00F0F4FF0000535
:1019B00059D003F0010602F49077374365D0C10790
:1019C00005D0D10503D5616C41F001016164410787
:1019D00005D5D90703D0616C41F00201616481072C
:1019E00005D5D90703D0616C41F00401616401079A
:1019F00007D502F02001314303D0616C41F00801AA
:101A00006164616C00293AD0800604D5900602D545
:101A1000204600F03AFC20684069616CC0F38010F9
:101A2000090700D460B3204600F0FAFB2068406943
:101A3000400621D52068143050E8001F21F04001F5
:101A400040E80012002AF5D1E06BA8B16D4941636E
:101A5000E06BFEF7BFFC002811D0E06B416B01B0DA
:101A6000BDE8F040084783060FD593060DD5204604
:101A7000BDE8F84000F009BC2046FFF78DFFF8BD37
:101A80002046FFF789FF6564F8BD266B2023012EF1
:101A90007CD1C6067AD5D60678D508684868009005
:101AA00048694FF00206400640D5E16B086840687F
:101AB0000004000CE8D0A28D8242E5D9E085886957
:101AC00020282DD020680C3050E8001F21F48071B0
:101AD00040E80012002AF5D12068143050E8001FB9
:101AE00021F0010140E80012002AF5D120681430ED
:101AF00050E8001F21F0400140E80012002AF5D113
:101B000084F84230256320680C3050E8001F21F033
:101B1000100140E80012002AF5D1E06BFEF736FC18
:101B20006663A08DE18D401A81B22AE0A08DE18D1F
:101B3000401A81B2E08D0028A6D00029A4D02268E6
:101B40000C3252E8000F20F4907042E80007002F9A
:101B5000F5D12068143050E8002F22F0010240E84F
:101B60000027002FF5D184F84230256320680C301F
:101B700050E8002F22F0100240E80023002BF5D19E
:101B800066632046FFF7CCFEF8BDFFE705062BD5C0
:101B9000150629D594F841002128F5D1A068B0F5A3
:101BA000805F01D12069B0B1206A411C21622168A7
:101BB00000784860E08C401E0004000CE084E3D113
:101BC0002068C16821F08001C1602068C16841F0CF
:101BD0004001C160D8E7206A0088C0F3080048606F
:101BE000206A801C2062E5E74006CDD55006CBD5A3
:101BF000CA68204622F04002CA6084F8413000F0F2
:101C0000C5F8C1E7D720000870B5040004D094F8E7
:101C10004100002510B106E0012070BD84F840505D
:101C2000204600F023F8242084F841002068C16891
:101C300021F40051C160204600F088FB2068016952
:101C400021F4904101612068416921F02A0141613C
:101C50002068C16841F40051C1606564202084F8A7
:101C6000410084F842006563002070BD70477047F2
:101C700070472DE9F843044690F84100984616460F
:101C80000D46202802D00220BDE8F88385B17EB140
:101C900000206064212084F84100FEF7E5FEA68460
:101CA0008146E684A0682027B0F5805F02D003E07B
:101CB0000120E9E7206910B12E4600250EE000263C
:101CC0000CE08021204600F0E5FBA8B9C6B116F86B
:101CD000010B21684860E08C401EE084E08C4B469C
:101CE0004FF00002CDF800800028EAD14FF040010B
:101CF000204600F0CFFB40B184F841700320C3E7D9
:101D000035F8020BC0F30800E3E784F841700020C7
:101D1000BAE7000070B5044690F84100202801D0D1
:101D2000022070BD49B342B32162A284E284002044
:101D30006064212384F84130A56B114BAB62A56B25
:101D4000104BEB62A56B104B2B63A36B586325689C
:101D500013462A1DA06BFEF737FD21686FF0400087
:101D600008602068143050E8001F41F0800140E80E
:101D70000012002AF5D1002070BD012070BD0000C6
:101D8000D521000817220008E72000080649012095
:101D9000087006490878401E08700548016801F57A
:101DA00080710160704700000000002001000020E9
:101DB000040000207047FEE7FEE7FEE7704710B51D
:101DC000406A01684A6822F003024A60416D41F0AE
:101DD00010014165012180F85110FFF74FF910BD46
:101DE00010B5406AFFF7C3FA10BD10B5406AFFF79F
:101DF0005AFD10BD10B5406AFFF757FD10BD70B514
:101E00000546446AFEF730FE0246286800688006F0
:101E100026D42068416821F020014160A06818B9EB
:101E20006068B0F5827F16D02068416821F001011A
:101E300041606421204600F076F808B120206065FA
:101E40000020E087012084F85100606D40B12046F9
:101E5000FFF714F970BD2068416821F00301E7E73E
:101E60002046FFF783FA70BD38B50546446AFEF791
:101E7000FBFD024628680068800623D4206841687C
:101E800021F0200141602068416821F00201416099
:101E90006421204600F075F818B1606D40F0200014
:101EA0006065A068002118B92068C2688068009049
:101EB000E186012084F85100606D18B12046FFF7DB
:101EC000DDF838BD2046FFF7EDFC38BD70B505469E
:101ED000446AFEF7C9FD02462868006880061ED4E1
:101EE0002068416821F0200141606421204600F013
:101EF00048F818B1606D40F02000606520684168C6
:101F000021F0030141600020E086E087012084F891
:101F10005100606D18B12046FFF7B0F870BD204643
:101F2000FFF7C2FC70BDF8B5044640684FF48273F9
:101F3000984217D1A0684FF48065B0F5004F01D0EA
:101F4000A8420FD12068066826F040060660606847
:101F5000984207D1A068A84204D100920B46002203
:101F6000012103E000920B4600228021204600F070
:101F700023F8002804D0606D40F020006065032045
:101F8000F8BDF8B515460E460B46009204460122F0
:101F9000022100F011F840B933460022802120468A
:101FA000009500F009F8002804D0606D40F0200092
:101FB00060650320F8BD00002DE9F8431E469146F8
:101FC00088460446089DFEF74FFD401B351AFEF774
:101FD0004BFD074625480068C0F3CB30684338E026
:101FE000701C37D0FEF740FDC01BA84203D215B1CC
:101FF000009860B32CE02068416821F0E001416066
:102000006068B0F5827F0BD1A068B0F5004F02D0B8
:10201000B0F5806F04D12068016821F040010160B3
:10202000A06AB0F5005F09D12068016821F4005171
:1020300001602068016841F400510160012084F8CA
:102040005100002084F850000320BDE8F8830025EB
:10205000401E00902068816838EA010004D0002109
:102060004945BDD10020F0E70121F9E71C0000201F
:102070007047FEF7FFBC30B58FB028216846FEF7E9
:102080008AF814210AA8FEF786F801210804CDE990
:1020900000100024029402250491CDE907504FF46A
:1020A000E01009906846FEF759FE08B172B6FEE7E7
:1020B0000F20CDE90A054FF48060CDE90C400221E4
:1020C0000AA80E94FEF76EFD002801D072B6FEE756
:1020D0000FB030BD704710B5406A0021C185C18482
:1020E000FFF75AFC10BD70B5446A2068406994F847
:1020F0004110C0F3C0100025212904D118B1E58496
:10210000204600F0B4F82068406994F84210C0F30B
:102110008010222904D118B1E585204600F080F80E
:10212000606C40F0100060642046FFF735FC70BD25
:1021300010B50146406A096809684FF00002890637
:102140002ED4C28501680C3151E8003F23F480731E
:1021500041E80034002CF5D10168143151E8003F0A
:1021600023F0010341E80034002CF5D1016814315B
:1021700051E8003F23F0400341E80034002CF5D142
:10218000202180F84210016B012909D101680C312E
:1021900051E8003F23F0100341E80034002CF5D152
:1021A0004263016B012902D0FFF761FD10BD818DF3
:1021B000FFF7B6FB10BD10B5406A01214163016B0A
:1021C000012902D0FFF754FD10BD818D4908FFF7AA
:1021D000A7FB10BD10B50146406A09680968890669
:1021E00016D40021C1840168143151E8002F22F077
:1021F000800241E80023002BF5D101680C3151E841
:10220000002F42F0400241E80023002BF5D110BD21
:10221000FFF7BCFD10BD10B5406AFFF7CBFD10BD48
:1022200001680C3151E8002F22F4907241E800233C
:10223000002BF5D10168143151E8002F22F0010282
:1022400041E80023002BF5D1016B012909D1016878
:102250000C3151E8002F22F0100241E80023002B3E
:10226000F5D1202180F842100021016370470168F8
:102270000C3151E8002F22F0C00241E80023002B6E
:10228000F5D1202180F84110704708B590F8421030
:10229000222901D0022008BD82684FF480539A425F
:1022A00001D1016921B1816A9A421BD04AB10AE089
:1022B0000268816A5268C2F308020A80816A891C36
:1022C00008E0026972B10268526802F07F020A7087
:1022D000816A491C8162C18D491E0904090CC185AE
:1022E00003D01BE002685268F1E70168CA6822F077
:1022F0002002CA600168CA6822F48072CA6001685C
:102300004A6922F001024A61202180F8421000212E
:102310004163026B012A03D0FFF7A9FC002008BD2E
:10232000016301680C3151E8002F22F0100241E8EE
:102330000023002BF5D101680A68D20602D50A688D
:1023400049680091818DFFF7EBFAE7E770B5044625
:1023500000680169E26821F440511143016121697B
:10236000A0680843616908432168CA6841F20C63A8
:102370009A430243CA6020684169A26921F440710E
:10238000114341611E492068884202D1FEF7B0FC2A
:1023900001E0FEF79DFC00EBC00101EB001260685C
:1023A00064218000B2FBF0F3B3FBF1F36FF0180689
:1023B0007343B2FBF0F5B2FBF0F605EB8305322375
:1023C00003EB0515B5FBF1F5B6FBF1F605F0F005ED
:1023D00005EB0615B2FBF0F6B2FBF0F0B0FBF1F046
:1023E0006FF01802504306EB800003EB0010B0FBC7
:1023F000F1F0216800F00F002844886070BD0000F3
:102400000038014038B581620446828500201346B9
:102410006064222284F84220E56B1B4AAA62E56BC5
:102420001A4AEA62E56B1A4A2A63E26B50630A466B
:102430002168E06B091DFEF7C7F920680168406854
:102440000090206948B120680C3050E8001F41F42A
:10245000807140E80012002AF5D12068143050E85D
:10246000001F41F0010140E80012002AF5D1206868
:10247000143050E8001F41F0400140E80012002AEB
:10248000F5D1002038BD000031210008B721000837
:10249000E72000082DE9F843984617460D46044604
:1024A000089E24E0701C22D0FEF7DEFAA0EB0800A4
:1024B000B0421AD8CEB12068C168490717D5802D1F
:1024C00015D0402D13D00168C94309070FD4016806
:1024D0000025406800902046FFF7A2FE08206064B7
:1024E00084F840500120BDE8F8830320FBE7206812
:1024F000006835EA000004D00020B842D2D00020A5
:10250000F1E70120F9E700000148FFF747BA0000B2
:10251000E4010020F8B51F48416941F00101416123
:1025200040691D4900F0010000901C4800248026ED
:10253000016044618461C0E9036410210F02C76136
:10254000C0E9011400F18805A8634562FEF7FEF8B2
:10255000012211461120FEF7F3FA1120FEF7E2FAEC
:102560000D49A5F144001439C0E9001444618461A7
:10257000C0E90364C7618460E8634562FEF7E6F87A
:10258000012211461020FEF7DBFABDE8F8401020CA
:10259000FEF7C8BA00100240800002405C01002033
:1025A000FEE710B50446006A8047E168BDE81040C8
:1025B0000120084738B504460BA00068009020466B
:1025C00000F042F9E168002088476268012168460E
:1025D0009047E16801208847204600F0F9F820463E
:1025E00000F020F938BD0000C700000001221103EF
:1025F0000148FEF734BA0000000C0140F0B52F4846
:1026000085B0816941F008018161816901F00801AB
:102610000491816941F008018161816901F008013B
:102620000491816941F008018161816901F008012B
:102630000491816941F008018161816901F008011B
:102640000491816941F004018161816901F0040113
:102650000491816941F0040181618069012400F0E5
:1026600004000490002560038DE831000320144E1F
:10267000039069463046FEF7F1F8E00300906946A2
:102680003046FEF7EBF82003009069463046FEF72F
:10269000E5F80C4F694638460094FEF7DFF86946C6
:1026A00038460094FEF7DAF8A003CDE90005694644
:1026B0003046FEF7D3F805B0F0BD00000010024030
:1026C000000C014000080140F8B5044618A01D4662
:1026D00000680090080C8DF80100080A8DF80200CF
:1026E0008DF803101646204600F0AEF8E168002091
:1026F000884762680421684690474FF480718D4294
:1027000006D80A2DA9B203D262683046904704E089
:10271000626A30469047E06A8047E1680120884756
:10272000204600F055F8204600F07CF8F8BD000087
:1027300002000000F8B5044611A01D460068009094
:10274000080C8DF80100080A8DF802008DF80310BE
:10275000E168164600208847626804216846904771
:102760000A2DA9B203D2A2683046904704E0A26ABB
:1027700030469047E06A8047E16801208847F8BD0D
:102780000300000038B50D460446C16800208847A4
:102790000EA0012100680090626868469047A26818
:1027A00003210DF1010090479DF80100000228600F
:1027B0009DF802100843000228609DF803100843AA
:1027C0002860E1680120884738BD00009F000000B4
:1027D000F8B504460EA06FF07F4500680090E168F0
:1027E0000020884762680121684690476E460121B3
:1027F000A268701C90479DF80100C00704D06D1EB0
:10280000F5D104A000F0ACF9E16801208847F8BDDB
:1028100005000000573235517878204552524F520A
:10282000200D0A0038B5044606A000680090E16853
:10283000002088476268012168469047E1680120CE
:10284000884738BD0400000038B5044606A000687B
:102850000090E1680020884762680121684690473F
:10286000E1680120884738BD06000000044B4FF4A2
:10287000805108B1012200E000221846FEF7EFB8AF
:10288000000C01402DE9F04385B0624C0025029513
:10289000A06940F00100A061A06900F0010004906F
:1028A000A06940F00800A061A06900F00800049051
:1028B000A06940F00800A061A06900F00800049041
:1028C000A06940F00800A061A06900F00800049031
:1028D000A06940F00800A061A06900F00800049021
:1028E000A06940F00400A061A06900F00400049019
:1028F000A06940F00400A061A0694FF0020800F058
:10290000040004904FF40050CDE900080320DFF8E4
:102910000891039069464846FDF7A0FF4FF4004038
:10292000009069464846FDF799FF4FF48040CDE995
:10293000000569464846FDF791FF0126A714CDE939
:10294000007669464846FDF789FFDFF8D090694672
:1029500048460096FDF782FF694648460096FDF717
:102960007DFFE06940F48040E061E0692C4E00F4B6
:1029700080400490B562F56175613561C6F82C80C0
:102980004FF48270F560C6E9010535626015756225
:10299000B061244830603046FEF771FB606940F05A
:1029A000010060616069204900F00100049006F1B7
:1029B00058008024016045618561C0E9034510210C
:1029C000C761C0E90115B0644662FDF7BFFE03228E
:1029D00011460E20FEF7B4F80E20FEF7A3F81249B8
:1029E00006F19C001439C0E9001545618561C0E914
:1029F0000345C7618560F0644662FDF7A7FE0122CA
:102A000011460F20FEF79CF80F20FEF78BF805B05B
:102A1000BDE8F08300100240000C014000080140B6
:102A20008404002000380040580002400A46014655
:102A30000148FEF729BC0000840400200A46014634
:102A40000148FEF7C9BE0000840400200120FDF704
:102A5000F3BE00000A460146014B0248FEF769BB7F
:102A6000A0860100840400200A4601464FF47A73D0
:102A70000148FEF77DBC00008404002010B5FFF77C
:102A8000BDFDBDE81040FFF7B1BD00002DE9F05FCE
:102A900000268846044606704FF40059154F4FF043
:102AA000800BA1F1010A20E00025012249463846A9
:102AB000FDF7D5FF4FF480413846FDF7CBFF20B13D
:102AC00021782BFA05F0014321700022494638464F
:102AD000FDF7C5FF6D1CADB2082DE6D3564502DAF1
:102AE000002004F8010F761CB6B24645DCD3BDE8E1
:102AF000F09F0000000C01402DE9F05F894606467A
:102B00000025164F4FF0800A4FF40058A1F1010B39
:102B100020E0002431782AFA04F0014201D0012299
:102B200000E000224FF400413846FDF798FF0122F3
:102B300041463846FDF793FF002241463846FDF7EF
:102B40008EFF641CA4B2082CE4D35D4500DA761C29
:102B50006D1CADB24D45DCD3BDE8F09F000C0140CB
:102B60000FB4054B10B503A9044A029800F028F8E9
:102B700010BC5DF814FB0000812E000858000020F6
:102B80000907090E002804DB00F1E02080F800149A
:102B9000704700F00F0000F1E02080F8141D70472E
:102BA00002E008C8121F08C1002AFAD17047704716
:102BB000002001E001C1121F002AFBD17047000074
:102BC0002DE9FF4F8DB09B460F460446002606E0D8
:102BD00025280BD05A460F999047641C761C207804
:102BE0000028F5D111B03046BDE8F08F0025A84689
:102BF0000122984900E0054314F8013F203B02FA06
:102C000003F00842F7D120782E2817D114F8010FCD
:102C100045F004052A280ED06FF02F022078A0F18D
:102C2000300109290AD808EB880102EB410100EBC9
:102C30000108641CF2E757F8048B641C20786C28A8
:102C40000DD004DC4C2812D06A2811D104E074287D
:102C50000DD07A280CD10AE045F4001507E0617820
:102C600045F48015814202D1641C05F58015641C71
:102C70002278692A45D008DC002AB3D0582A69D0C6
:102C8000632A10D0642A08D13BE0702A67D0732AE7
:102C900013D0752A5CD0782A5CD010465A460F991A
:102CA0009047761CD3E017F8040B8DF80000002045
:102CB0008DF80100E946012003E057F8049B4FF02E
:102CC000FF3069074FF0000501D40AE06D1C45454F
:102CD0000DDA8542FADB19F805100029F6D106E075
:102CE0006D1C8542FCDB19F805100029F8D12E4433
:102CF00004E019F8010B5A460F9990476D1EF8D25F
:102D0000A5E00A200021CDE90801C5F30250022800
:102D10000DD001CFC117031E71F100030DDA4FF082
:102D2000000CD0EB0C006CEB01012D2308E0FF1D23
:102D300027F00707F7E80201EDE72B0504D52B2361
:102D40008DF8283001233BE0EB0739D02023F7E74B
:102D50000A2000E010200021CDE9080107E0102042
:102D6000002145F00405CDE908014FF00808C5F33E
:102D7000025002280FD001CF00214FF0000A2B078C
:102D80001FD5702A0DD0DDE908C38CF0100C5CEA69
:102D9000030C0CD015E0FF1D27F00707F7E8020130
:102DA000EBE740228DF828204FF0010A0BE050EAB3
:102DB000010306D030238DF828308DF82920022316
:102DC0009A46582A04D024A20DF120090B9209E05A
:102DD00026A2F9E7DDE90823FDF7E8F90B9B9B5CE8
:102DE00009F8013D50EA0102F4D1ADEB09002030B1
:102DF0000890680701D44FF001080899884502DD62
:102E0000A8EB010000E000208046002506E00AA8AB
:102E10005A46405D0F9990476D1C761C5545F6DB70
:102E200004E030205A460F999047761CB8F1000113
:102E3000A8F10108F5DC05E019F8010B5A460F99D5
:102E40009047761C0899481E08900029F4DC641C01
:102E5000C5E60000092801003031323334353637F9
:102E600038396162636465660000000030313233D6
:102E70003435363738394142434445460000000076
:102E800038B504468DF80000C8230122694602487F
:102E9000FEF7EFFE204638BDE40100201CB5FDF72B
:102EA000F1FDFFF7E8F82348816941F004018161F1
:102EB000806900F004000190FDF7FAF91E48FFF761
:102EC00070FB69461C48FFF75DFC1CA00099FFF7EA
:102ED00047FE1FA0FFF744FE1748FFF76BFB20A03B
:102EE000FFF73EFE294C00264FF48075A07801289C
:102EF0000AD1A670D4E902122B460F48FFF7E4FB73
:102F0000A06800F58070A06020780028EED060787E
:102F10000028EBD0D4E901108842E7D926702B466F
:102F20001B4A0548FFF706FC2A4619491948FEF7CF
:102F3000F1FEDBE700100240280000205732355137
:102F400058582049443A202025780D0A00000000F6
:102F5000B5C8B4FDC8ABC6ACB2C1B3FD0D0A000024
:102F6000C8ABC6ACB2C1B3FDCDEAB3C920BFC9D2AC
:102F7000D4BFAACABCD0B4C8EBCAFDBEDD20C4AC65
:102F8000C8CFB4D330BFAACABC0D0A0000000020CD
:102F90005C000020E4010020010202030405060792
:102FA00008090A0B0C0D0E0F1010000000000000A5
:102FB00000000102030406070809000000000102E6
:102FC00003040000E42F0008000000205C00000063
:102FD000A02B0008403000085C0000200C09000015
:102FE000B02B0008010000000000000000000000FD
:102FF00000000000010000001000000000000000C0
:1030000000127A00000000002C0200208528000831
:10301000692A0008552A00086D2800087D2A000842
:10302000F92A00088D2A00086D2800088528000864
:103030003D2A00082D2A00084D2A00080000000043
:0400000508000131BD
:00000001FF
